475183    ADB5016287627       20250304IAD00943904                                        M1 K.C.                                    KRISHNA                                 RAJ                                     19700101NEPAL                                                           524     ADBARAHATHAWA                             SARLAHI                                 SARLAHI                                 446009779849504408                                                O1006600943904028                                NPRKRISHNA RAJ K.C.                                  20250304P                   066                 AVDD      A9999     000000000000000                    10                                                                                                                                             
475183    ADB4281947392       20250323IAD05337573                                        F2 KUSWAR                                  SUJITA                                                                          20020717NEPAL                                   1 19-06-80-00177      2 524     ADBARAHATHAWA03                                                                                                           446009779709361771       9709361771                               N1006605337573018                                NPRSUJITA KUSWAR                                     20250323P                   066                 AVDD      A9999     000000000000000                    10                                                                                                                                             
475183    ADB3932606422       20250323IAD05529088                                        F2 TATHA                                   NEHA                                    PUSTAK                                  19831027NEPAL                                   1 04/3984             2 524     ADBHADRAPUR05                                                                                                             446009779862695153                                                N0600505529088017                                NPRSHOVA ADHIKARI                                    20250323P                   005                 AVDD      A9999     000000000000000                    10                                                                                                                                             
475183    ADB5994950501       20250323IAD05581638                                        M1 KAMATI                                  MOHAN                                                                           19670822NEPAL                                   1 043015/708          2 524     ADBHADRAPUR06                                                                                                             446009779817984715                                                N0600505581638017                                NPRMOHAN KAMATI                                      20250323P                   005                 AVDD      A9999     000000000000000                    10                                                                                                                                             
475183    ADB1919044266       20250323IAD05406598                                        M1 GURUNG                                  MANI                                    KUMAR                                   19940308NEPAL                                   1 451018/13582        2 524     ADMADHYANEPAL7LAXMIBAZAR                                                                                                  446009779766599268                                                N0317905406598010                                NPRMANI KUMAR GURUNG                                 20250323P                   179                 AVDD      A9999     000000000000000                    10                                                                                                                                             
475183    ADB9100456778       20250323IAD05579679                                        M1 KUMAL                                   MADAN                                                                           19970902NEPAL                                   1 53-01-71-01114      1 524     ADPYUTHANMUNICIPALITY08DAMTI                                                                                              446009779768861010                                                N0728805579679012                                NPRMADAN KUMAL                                       20250323P                   288                 AVDD      A9999     000000000000000                    10                                                                                                                                             
475183    ADB7497299911       20250323IAD05570316                                        M1 THAPA                                   TUK                                     BAHADUR                                 19690202NEPAL                                   1 422/04              2 524     ADBIJUWAR02PUNYAKHOLA                                                                                                     446009779847820948                                                N0728805570316014                                NPRTUK BAHADUR THAPA                                 20250323P                   288                 AVDD      A9999     000000000000000                    10                                                                                                                                             
475183    ADB4384988424       20250323IAD05575641                                        M1 GAUTAM                                  DAMODAR                                                                         19651105NEPAL                                   1 40                  2 524     ADPYUTHAN3RATAMATA                                                                                                        446009779847820958                                                N0728805575641010                                NPRDAMODAR GAUTAM                                    20250323P                   288                 AVDD      A9999     000000000000000                    10                                                                                                                                             
475183    ADB5100120951       20250323IAD05571534                                        M1 NEUPANE                                 THANESHWOR                                                                      19860215NEPAL                                   1 34478               2 524     ADPYUTHANMUNICIPALITY2                                                                                                    446009779841625192                                                N0728805571534015                                NPRTHANESHWOR NEUPANE                                20250323P                   288                 AVDD      A9999     000000000000000                    10                                                                                                                                             
475183    ADB7325015212       20250323IAD05579928                                        M1 CHAUDHARI                               KHUSHI                                  RAM                                     19891230NEPAL                                   1 521027/744          2 524     ADTULSHIPURUPMANAPA15DURUWA                                                                                               446009779746379185                                                N0728805579928012                                NPRKHUSHI R CHAUDHARI                                20250323P                   288                 AVDD      A9999     000000000000000                    10                                                                                                                                             
475183    ADB4325950991       20250323IAD02004896                                        M1 BANIYA                                  MAN                                     KUMAR                                   19980714NEPAL                                   1 06-01-73-01726        524     AD19ITAHARISUBMETROPOLITIANCITY                                                                                           446009779814323731       9814323731                               O0100202004896016                                NPRMAN KUMAR BANIYA                                  20250323P                   002                 AVDD      A9999     000000000000000                    10                                                                                                     manuvae786@gmail.com                    
475183    ADB7870159109       20250323IAD03000164                                        F2 SHARMA                                  ASHMA                                                                           19951211NEPAL                                   1 27-01-71-01541        524     ADKATHMANDUMETROPOLITANCITY                                                                                               446009779803641895                                                O0100203000164017                                NPRASHMA SHARMA                                      20250323P                   002                 AVDD      A9999     000000000000000                    10                                                                                                     ashmasharma2010@gmail.com               
475183    ADB1407087326       20250320IAD01237239                                        M1 KHATRI                                  GOVINDA                                                                         19870408NEPAL                                   1 10046/1063          2 524     ADDHARMADEVI06                                                                                                            446009779842703025                                                N0603301237239010                                NPRGOVINDA KHATRI                                    20250320P                   033                 AVDD      A9999     000000000000000                    10                                                                                                     GOVINDAKHATRI@GMAIL.COM                 
475183    ADB7604219129       20250323IAD05533552                                        M1 THARU                                   LAL                                     BAHADUR                                 19880820NEPAL                                   1 65-01-77-06766      2 524     ADMADHUBAN04                              MADHUBAN 4                              MADHUBAN 4                              446009779707128573       9707128573                               N0316405533552015                                NPRLAL BAHADUR THARU                                 20250323P                   164                 AVDD      A9999     000000000000000                    10                                                                                                                                             
475183    ADB0236495064       20250323IAD05579413                                        M1 JAISHI                                  MAYARAM                                                                         19760422NEPAL                                   1 85285/482           2 524     ADNARAYANMUNICIPALITY                                                                                                     446009779866897370                                                N0721205579413011                                NPRMAYARAM JAISHI                                    20250323P                   212                 AVDD      A9999     000000000000000                    10                                                                                                                                             
475183    ADB3258054294       20250323IAD00495066                                        M1 JOSHI                                   JASMINA                                                                         19700101NEPAL                                                           524     ADVYAS                                    NAPATANAHUN                             NAPATANAHUN                             446009779846142584                                                O0316800495066035                                NPRJASMINA  JOSHI                                    20250323P                   168                 AVDD      A9999     000000000000000                    10                                                                                                                                             
475183    ADB4858001638       20250323IAD00873156                                        M1 CONSTRUCTION                            OM                                      MAHASANIDEV                             19730427NEPAL                                   1 72-1-41/5961/1267   2 524     ADKHALANGAWN5BAJAR                                                                                                        446009779848761569                                                N0824000873156014                                NPROM M CONSTRUCTION                                 20250323P                   240                 AVDD      A9999     000000000000000                    10                                                                                                                                             
475183    ADB2399677657       20250323IAD05581763                                        F2 MASALA                                  NEW                                     ANUSHKA                                 19860701NEPAL                                   1 2/2574              2 524     ADNILKANTHA3                                                                                                              446009779851345466                                                N0213005581763013                                NPRNEW ANUSHKA MASALA                                20250323P                   130                 AVDD      A9999     000000000000000                    10                                                                                                                                             
475183    ADB0362318425       20250323IAD05582106                                        M1 SUBEDI                                  DINESH                                                                          20050323NEPAL                                   1 26018002787         1 524     ADNEELAKANTHA3                                                                                                            446009779701609132                                                N0213005582106016                                NPRDINESH SUBEDI                                     20250323P                   130                 AVDD      A9999     000000000000000                    10                                                                                                                                             
475183    ADB8795129518       20250319IAD01097421                                        F2 BUDHATHOKI                              SARMILA                                                                         19891118NEPAL                                   1 661018/331          2 524     ADKAMDIVDC09                                                                                                              446009779868974653                                                N0720301097421029                                NPRSARMILA BUDHATHOKI                                20250319P                   203                 AVDD      A9999     000000000000000                    10                                                                                                                                             
475183    ADB6058699451       20250319IAD05574511                                        M1 YADAV                                   JEETENDRA                                                                       20030208NEPAL                                   1 66-01-78-03283      2 524     ADDUDUWAGAUPALIKA03BANKATUWA                                                                                              446009779815599619                                                N0720305574511014                                NPRJEETENDRA YADAV                                   20250319P                   203                 AVDD      A9999     000000000000000                    10                                                                                                                                             
475183    ADB1008401316       20250319IAD05574468                                        M1 YADAV                                   OMKAR                                                                           20020914NEPAL                                   1 66-01-77-05557      2 524     ADDUDUWAGAUPALIKA03BANKATUWA                                                                                              446009779746530392                                                N0720305574468011                                NPROMKAR YADAV                                       20250319P                   203                 AVDD      A9999     000000000000000                    10                                                                                                                                             
475183    ADB6329978405       20250320IAD01699998                                        F  K                                       SHARADA                                 B                                       19961203NEPAL                                   1 522037/1917           524     ADNEPALGUNJ18                                                                                                             446009779804562718                                                O0720301699998017                                NPRSHARADA B K                                       20250320P                   203                 AVDD      A9999     000000000000000                    10                                                                                                                                             
475183    ADB5616144821       20250320IAD01667534                                        F  GHARTI                                  MANISHA                                                                         19990223NEPAL                                   1 62-01-72-00497        524     ADBHERIGANGA10SURKHET                                                                                                     446009779824540578                                                O0721001667534019                                NPRMANISHA GHARTI                                    20250320P                   210                 AVDD      A9999     000000000000000                    10                                                                                                                                             
475183    ADB0518858822       20250323IAD01629038                                        M1 BUDHATHOKI                              SUNITA                                                                          19700101NEPAL                                                           524     ADKHAJURA                                 GAUPALIKA                               GAUPALIKA                               446009779825520594                                                O0720301629038016                                NPRSUNITA BUDHATHOKI                                 20250323P                   203                 AVDD      A9999     000000000000000                    10                                                                                                                                             
475183    ADB5264252677       20250323IAD01761062                                        M1 THARU                                   BIRENDRA                                                                        20020228NEPAL                                   1 65-02-75-02272        524     ADRAJAPUR03                                                                                                               446009779812478818                                                O0720301761062015                                NPRBIRENDRA THARU                                    20250323P                   203                 AVDD      A9999     000000000000000                    10                                                                                                                                             
475183    ADB8412884119       20250323IAD00396144                                        M1 UPRETI                                  DEV                                     RAJ                                     19700101NEPAL                                                           524     ADDHANGADHI                               KAILALII                                KAILALII                                446009779841551170                                                O0822500396144012                                NPRDEV RAJ UPRETI                                    20250323P                   225                 AVDD      A9999     000000000000000                    10                                                                                                                                             
475183    ADB8497994807       20250323IAD05568135                                        F2 CHAUDHARY                               NIRMALA                                                                         19970301NEPAL                                   1 67-01-72-04902      2 524     ADDHANGADHISUBMETROPOLITIANCITY                                                                                           446009779800602829       9800602829                               N0822505568135012                                NPRNIRMALA CHAUDHARY                                 20250323P                   225                 AVDD      A9999     000000000000000                    10                                                                                                                                             
475183    ADB1401794288       20250323IAD05145479                                        M1 SHAHI                                   BAL                                     BAHADUR                                 19760404NEPAL                                   1 392                 2 524     ADKUSHE02                                                                                                                 446009779762464128                                                N0726205145479010                                NPRBAL BAHADUR SHAHI                                 20250323P                   262                 AVDD      A9999     000000000000000                    10                                                                                                                                             
475183    ADB9506564725       20250323IAD05228248                                        M1 BHATT                                   PRADIP                                                                          20020614NEPAL                                   1 75-01-78-02965      1 524     ADDODHARACHADANI04                                                                                                        446009779809494257                                                N0823505228248010                                NPRPRADIP BHATT                                      20250323P                   235                 AVDD      A9999     000000000000000                    10                                                                                                                                             
475183    ADB1868405385       20250323IAD01467152                                        F  BHATT                                   KAMALA                                  JOSHI                                   19890419NEPAL                                   1 75-01-72-00069        524     ADMAHAKALIMUNICIPALITY1                                                                                                   446009779848415554                                                O0823501467152011                                NPRKAMALA JOSHI BHATT                                20250323P                   235                 AVDD      A9999     000000000000000                    10                                                                                                                                             
475183    ADB8232486602       20250323IAD00075048                                        M1 TIMRAKAR                                RITA                                                                            19700101NEPAL                                                           524     ADBHAKTAPUR                               BHAKTAPUR                               BHAKTAPUR                               446009779841110321                                                O0212200075048016                                NPRRITA  TIMRAKAR                                    20250323P                   122                 AVDD      A9999     000000000000000                    10                                                                                                                                             
475183    ADB1120297535       20250323IAD02037130                                        F2 LAMA                                    ASHA                                                                            20010309NEPAL                                   1 21-21-75-00026      1 524     AD4SUNAPATIRURALMUNICIPALITY                                                                                              446009779767941566                                                N0212202037130011                                NPRASHA LAMA                                         20250323P                   122                 AVDD      A9999     000000000000000                    10                                                                                                     ashadongtamang66@gmail.com              
475183    ADB6220164818       20250324IAD05582332                                        M1 THAPA                                   DEV                                     BAHADUR                                 19890422NEPAL                                   1 633054/101          2 524     ADAATHBIS06DAILEKH                                                                                                        446009779858089837                                                N0728105582332013                                NPRDEV BAHADUR THAPA                                 20250324P                   281                 AVDD      A9999     000000000000000                    10                                                                                                                                             
475183    ADB0101908950       20250323IAD00082285                                        F2 BASTOLA                                 SUMITRA                                                                         19700210NEPAL                                   1 27-01-78-08612      2 524     ADKATHMANDUMETROPOLITANCITY16                                                                                             446009779803544947                                                N0212300082285011                                NPRSUMITRA BASTOLA                                   20250323P                   123                 AVDD      A9999     000000000000000                    10                                                                                                                                             
475183    ADB8046502366       20250323IAD05582125                                        F2 NAKAL                                   DINISHA                                                                         20060524NEPAL                                   1 52-02-81-05373      1 524     ADTULSHIPUR                                                                                                               446009779749771426                                                N0919405582125011                                NPRDINISHA NAKAL                                     20250323P                   194                 AVDD      A9999     000000000000000                    10                                                                                                                                             
475183    ADB7817297936       20250323IAD05581550                                        F2 ADHIKARI                                MANISHA                                                                         20010427NEPAL                                   1 43017603417         1 524     ADBYAS11                                                                                                                  446009779864378721                                                N0508505581550014                                NPRMANISHA ADHIKARI                                  20250323P                   085                 AVDD      A9999     000000000000000                    10                                                                                                                                             
475183    ADB4249672278       20250323IAD05581978                                        F2 SADA                                    KIRAN                                   KUMARI                                  20021126NEPAL                                   1 19-01-77-21623      1 524     ADCHANDRANAGAR2                                                                                                           446009779826166891                                                N1006505581978017                                NPRKIRAN KUMARI SADA                                 20250323P                   065                 AVDD      A9999     000000000000000                    10                                                                                                                                             
475183    ADB0783134567       20250323IAD01229728                                        F2 KHADAYAT                                MANISHA                                                                         19860321NEPAL                                   1 723022/74           2 524     ADSUKLAPHANTA8PHULELI                                                                                                     446009779865971834                                                N0824601229728019                                NPRMANISHA KHADAYAT                                  20250323P                   246                 AVDD      A9999     000000000000000                    10                                                                                                                                             
475183    ADB2743090849       20250324IAD01380998                                        F2 BHANDARI                                KALAWATI                                KUMARI                                  19780805NEPAL                                   1 40471279            2 524     ADSHUKLAPHANTAMUNICIPALITY10                                                                                              446009779848780127                                                N0824601380998011                                NPRKALAWATI K BHANDARI                               20250324P                   246                 AVDD      A9999     000000000000000                    10                                                                                                                                             
475183    ADB1358403601       20250323IAD00387546                                        M1 ROKAYA                                  AMBER                                   BAHADUR                                 19700101NEPAL                                                           524     ADJORPATI                                 JORPATI                                 JORPATI                                 446009779860967878                                                O0210800387546013                                NPRAMBER BAHADUR  ROKAYA                             20250323P                   108                 AVDD      A9999     000000000000000                    10                                                                                                                                             
475183    ADB9726911426       20250323IAD00000814                                        M1 NEUPANE                                 DHURBA                                  PRASAD                                  19700101NEPAL                                                           524     ADMAJHIFEDA                               MAJHIFEDA                               MAJHIFEDA                               446009779841509140                                                O0100200000814012                                NPRDHURBA PRASAD  NEUPANE                            20250323P                   002                 AVDD      A9999     000000000000000                    10                                                                                                     dhurbaneupane@gmail.com                 
475183    ADB3351113168       20250323IAD00814818                                        M1 ALAM                                    IZHAR                                                                           19700101NEPAL                                                           524     ADKALAIYA                                 BALIRAMPUR                              BALIRAMPUR                              446009779811139610                                                O0507500814818017                                NPRIZHAR  ALAM                                       20250323P                   075                 AVDD      A9999     000000000000000                    10                                                                                                                                             
475183    ADB2762143054       20250323IAD05580130                                        F2 PARAJULI                                SHARMILA                                                                        19940822NEPAL                                   1 01-69-10450         2 524     ADMANDANDEUPUR12                                                                                                          446009779808814532                                                N0211005580130011                                NPRSHARMILA PARAJULI                                 20250323P                   110                 AVDD      A9999     000000000000000                    10                                                                                                                                             
475183    ADB3405440023       20250323IAD01278023                                        F2 BISTA                                   UMA                                     KUMARI                                  19900923NEPAL                                   1 313038/242          2 524     ADMAKAWANPUR2GOGANE                                                                                                       446009779841897624                                                N0211001278023012                                NPRUMA KUMARI BISTA                                  20250323P                   110                 AVDD      A9999     000000000000000                    10                                                                                                                                             
475183    ADB2706472097       20250323IAD05582082                                        F2 SHARMA                                  DHANA                                   KUMARI                                  20030914NEPAL                                   1 63-02-80-03168      1 524     ADAATHABISHNAPA06                                                                                                         446009779767828607                                                N0211005582082012                                NPRDHANA KUMARI SHARMA                               20250323P                   110                 AVDD      A9999     000000000000000                    10                                                                                                                                             
475183    ADB3953316573       20250218IAD01656539                                        M1 CHAULAGAIN                              MAHENDRA                                PRASAD                                  19720311NEPAL                                   1 1488                  524     ADSUKATIYA8                                                                                                               446009779868120173                                                O0721501656539011                                NPRMAHENDRA P CHAU                                   20250218P                   215                 AVDD      A9999     000000000000000                    10                                                                                                                                             
475183    ADB5993901574       20250218IAD01591064                                        M1 SHAHI                                   ASHOK                                   KUMAR                                   19700101NEPAL                                                           524     ADNARAHARINATH                            NARAHARINATH                            NARAHARINATH                            446009779848285910                                                O0726001591064016                                NPRASHOK KUMAR  SHAHI                                20250218P                   260                 AVDDNGP   A9999     000000000000000                    10                                                                                                                                             
475183    ADB8457713815       20250323IAD05437316                                        M1 SHAHI                                   JANAKI                                                                          20031226NEPAL                                   1 61-01-68-02748      2 524     ADMAHAWAI05                                                                                                               446009779745433272                                                N0726105437316010                                NPRJANAKI SHAHI                                      20250323P                   261                 AVDD      A9999     000000000000000                    10                                                                                                                                             
475183    ADB6886938712       20250323IAD05566904                                        M1 SAH                                     SURAJ                                   KUMAR                                   20041015NEPAL                                   1 16-01-78-03788      1 524     ADMAHADEVAGAPA05BHAGAWATPUR                                                                                               446009779829757573                                                N1103705566904010                                NPRSURAJ KUMAR SAH                                   20250323P                   037                 AVDD      A9999     000000000000000                    10                                                                                                                                             
475183    ADB5358862647       20250323IAD05333510                                        M1 SARDAR                                  BADRI                                   NARAYAN                                 19660908NEPAL                                   1 1172                2 524     ADBIRATNAGARWN19                                                                                                          446009779827307181                                                N0601805333510011                                NPRBADRI N SARDAR                                    20250323P                   018                 AVDD      A9999     000000000000000                    10                                                                                                     sardarbadrinarayan69@gmail.com          
475183    ADB0504904700       20250317IAD05549260                                        M1 LUITEL                                  NISHANTA                                                                        20080101NEPAL                                   1 3083/97             1 524     ADCHAMPADEVIRURALMUNICIPALITY06                                                                                           446009779861515546                                                N0211505549260013                                NPRNISHANTA LUITEL                                   20250317P                   115                 AVDD      A9999     000000000000000                    10                                                                                                                                             
475183    ADB4445596629       20250321IAD05519528                                        M1 RAI                                     RABINA                                                                          20010228NEPAL                                   1 11017601140         1 524     ADTHULUNGDUNDKOSHIGUP8                                                                                                    446009779765254027                                                N0211505519528011                                NPRRABINA RAI                                        20250321P                   115                 AVDD      A9999     000000000000000                    10                                                                                                                                             
475183    ADB7817468070       20250321IAD05387152                                        M1 BHUJEL                                  LALIT                                   BAHADUR                                 20010316NEPAL                                   1 11300830            1 524     ADSOTANGRM1PAWAI                                                                                                          446009779847778473                                                N1125505387152019                                NPRLALIT B BHUJEL                                    20250321P                   255                 AVDD      A9999     000000000000000                    10                                                                                                                                             
475183    ADB2544879961       20250323IAD01793480                                        M1 LAMA                                    SHERAP                                                                          20040615NEPAL                                   1 59-01-78-00112        524     ADSIMIKOTGAUNPALIKA4BARAUSE                                                                                               446009779866535761                                                O0721701793480015                                NPRSHERAP LAMA                                       20250323P                   217                 AVDD      A9999     000000000000000                    10                                                                                                                                             
475183    ADB6620466796       20250323IAD01687180                                        F  SHRESTHA                                BABITA                                                                          19920922NEPAL                                   1 27-01-73-02685        524     ADbudhanilakntha12jordhrakathmand                                                                                         446009779860907929                                                O0211501687180017                                NPRBABITA SHRESTHA                                   20250323P                   115                 AVDD      A9999     000000000000000                    10                                                                                                                                             
475183    ADB6772283587       20250323IAD05404783                                        M1 GURUNG                                  LOK                                     BAHADUR                                 19860420NEPAL                                   1 23896               2 524     ADKHAJURARURALMUNICIPALITY07              simalghari                              simalghari                              446009779804509914                                                N0720405404783014                                NPRLOK BAHADUR GURUNG                                20250323P                   204                 AVDD      A9999     000000000000000                    10                                                                                                                                             
475183    ADB5608494592       20250323IAD01464471                                        M1 PUN                                     MOHAN                                                                           19700101NEPAL                                                           524     ADKHAJURA                                 KHAJURA                                 KHAJURA                                 446009779812493208                                                O0720401464471016                                NPRMOHAN PUN                                         20250323P                   204                 AVDD      A9999     000000000000000                    10                                                                                                                                             
475183    ADB2578312099       20250316IAD05576502                                        M1 KRISHI                                  PANCHAKANYA                             SIKARIDEVI                              19820719NEPAL                                   1 5019                2 524     ADJEEVANPUR9                                                                                                              446009779746503453                                                N0213105576502011                                NPRPANCHAKANYA S KRISHI                              20250316P                   131                 AVDD      A9999     000000000000000                    10                                                                                                                                             
475183    ADB6015228628       20250323IAD01624348                                        M1 KRISHI                                  SAMBRIDHHA                              DHUNEBESI                               19750902NEPAL                                   1 5284                2 524     ADDHUNEBESI6                                                                                                              446009779851140624                                                N0213101624348014                                NPRSAMBRIDHHA D KRISHI                               20250323P                   131                 AVDD      A9999     000000000000000                    10                                                                                                                                             
475183    ADB6554820026       20250323IAD01196333                                        M1 JHA                                     RAMESH                                                                          19670530NEPAL                                   1 61221316              524     AD3                                                                                                                       446009779845081294                                                O0211201196333012                                NPRRAMESH JHA                                        20250323P                   112                 AVDD      A9999     000000000000000                    10                                                                                                                                             
475183    ADB0588830375       20250323IAD05364447                                        M1 JOSHI                                   MAHESH                                                                          20070310NEPAL                                   1 73-01-80-04114      2 524     ADDOGADAKEDAR1                                                                                                            446009779849811870                                                N0824605364447017                                NPRMAHESH JOSHI                                      20250323P                   246                 AVDD      A9999     000000000000000                    10                                                                                                                                             
475183    ADB2094683797       20250323IAD03060831                                        M1 MEHTA                                   DEVKANTA                                                                        19970414NEPAL                                   1 06-01-71-02064      1 524     ADKOSHIRURALMUNICIPALITY06                                                                                                446009779826320845                                                N0602903060831018                                NPRDEVKANTA MEHTA                                    20250323P                   029                 AVDD      A9999     000000000000000                    10                                                                                                                                             
475183    ADB0501416936       20250323IAD05577303                                        M1 CHAUDHARY                               PRAMOD                                                                          19900725NEPAL                                   1 371040/288778       2 524     ADLUMBINISANSKRITIKMUNICIPALITY05                                                                                         446009779805404198                                                N0414905577303015                                NPRPRAMOD CHAUDHARY                                  20250323P                   149                 AVDD      A9999     000000000000000                    10                                                                                                                                             
475183    ADB7255083751       20250320IAD05575671                                        F2 PUJARA                                  BARSHA                                                                          20040515NEPAL                                   1 75-01-80-11053      2 524     ADBHIMDATTA07                                                                                                             446009779744354379                                                N0823605575671017                                NPRBARSHA PUJARA                                     20250320P                   236                 AVDD      A9999     000000000000000                    10                                                                                                                                             
475183    ADB8402048227       20250323IAD01424590                                        M1 PANDEY                                  NAW                                     RAJ                                     19700101NEPAL                                                           524     ADDASHRATHCHAND                           JARGA                                   JARGA                                   446009779848845304                                                O0823801424590019                                NPRNAW RAJ  PANDEY                                   20250323P                   238                 AVDD      A9999     000000000000000                    10                                                                                                                                             
475183    ADB0025225164       20250323IAD02005985                                        F1 BHATT                                   PUJA                                                                            19990119NEPAL                                   1 75-02-75-03756        524     AD17BHIMDATTAMUNICIPALITY                                                                                                 446009779806419560                                                O0823602005985019                                NPRPUJA BHATT                                        20250323P                   236                 AVDD      A9999     000000000000000                    10                                                                                                     puja.bhatt349@gmail.com                 
475183    ADB0472627245       20250323IAD01357965                                        M1 DHUNGANA                                BHUPENDRA                                                                       19691114NEPAL                                   1 496/1678              524     ADBHARATPUR08GAURIGANJCHITWAN                                                                                             446009779851116946                                                O0508901357965015                                NPRBHUPENDRA DHUNGANA                                20250323P                   089                 AVDD      A9999     000000000000000                    10                                                                                                                                             
475183    ADB0147906513       20250323IAD05579844                                        M1 ADHIKARI                                BIBEK                                                                           20060703NEPAL                                   1 53028000502         1 524     ADSWORGADWARIMUNICIPALITY3                                                                                                446009779765084736                                                N0211305579844010                                NPRBIBEK ADHIKARI                                    20250323P                   113                 AVDD      A9999     000000000000000                    10                                                                                                     bibekadhikari929@gmail.com              
475183    ADB3120544982       20250323IAD05581668                                        F2 MAGAR                                   ROJAN                                   BUDHA                                   20030708NEPAL                                   1 1601190143          1 524     ADBHUMEGAUPALIKA2                                                                                                         446009779809566225                                                N0211305581668017                                NPRROJAN BUDHA MAGAR                                 20250323P                   113                 AVDD      A9999     000000000000000                    10                                                                                                                                             
475183    ADB7334498690       20250323IAD01492418                                        F  TAMANG                                  ASMITA                                                                          19970607NEPAL                                   1 34-01-72-02348        524     ADPARSA02JHABRAHA                                                                                                         446009779808209533       9808209533                               O0508501492418018                                NPRASMITA TAMANG                                     20250323P                   085                 AVDDNGP   A9999     000000000000000                    10                                                                                                                                             
475183    ADB3761965807       20250323IAD05573196                                        F2 TAMANG                                  LILA                                    MAYA                                    19860207NEPAL                                   1 71849/369           2 524     ADDEUMAI7AJAMBARE                                                                                                         446009779816021634                                                N0601105573196019                                NPRLILA MAYA TAMANG                                  20250323P                   011                 AVDD      A9999     000000000000000                    10                                                                                                                                             
475183    ADB4623148118       20250323IAD01091870                                        M1 KARKI                                   UMA                                     DEVI                                    19620202NEPAL                                   1 03-011-3/338        2 524     ADDEUMAIWN09ANGDANG                                                                                                       446009779813200876                                                N0601101091870019                                NPRUMA DEVI KARKI                                    20250323P                   011                 AVDD      A9999     000000000000000                    10                                                                                                                                             
475183    ADB2166517267       20250323IAD05580536                                        M1 KHANAL                                  AMISH                                                                           20070605NEPAL                                   1 35-01-80-07723      1 524     ADRATNANAGAR15                            BHARATPUR04                             BHARATPUR04                             446009779845218101                                                N0508905580536016                                NPRAMISH KHANAL                                      20250323P                   089                 AVDD      A9999     000000000000000                    10                                                                                                     khanalamish@gmail.com                   
475183    ADB9280741835       20250323IAD00832061                                        M1 D.C                                     ANIL                                                                            19700101NEPAL                                                           524     ADGHORAHI                                 DANG                                    DANG                                    446009779857832193                                                O0919100832061019                                NPRANIL D.C                                          20250323P                   191                 AVDD      A9999     000000000000000                    10                                                                                                     anildc5783@gmail.com                    
475183    ADB4506868222       20250323IAD05567481                                        M1 THAKUR                                  RADHE                                   SHYAM                                   19980429NEPAL                                   1 17-01-7206096       1 524     ADGANESHMANCHARNATHMUNICIPALITY10                                                                                         446009779817693278                                                N0211405567481014                                NPRRADHE SHYAM THAKUR                                20250323P                   114                 AVDD      A9999     000000000000000                    10                                                                                                     radheshyam3609@gmail.com                
475183    ADB0052451957       20250323IAD02033060                                        M1 KC                                      SUMAN                                                                           19970303NEPAL                                   1 53-01-69-05248      1 524     AD9PYUTHANMUNICIPALITY                                                                                                    446009779860357094                                                N0726102033060013                                NPRSUMAN KC                                          20250323P                   261                 AVDD      A9999     000000000000000                    10                                                                                                     sumankc2053@gmail.com                   
475183    ADB8933126506       20250323IAD01611486                                        M1 SHAHI                                   TOP                                     BAHADUR                                 19750805NEPAL                                   1 12/1422               524     ADCHILKHAYA9KALIKOT                                                                                                       446009779848192144                                                O0720901611486019                                NPRTOP BAHADUR SHAHI                                 20250323P                   209                 AVDD      A9999     000000000000000                    10                                                                                                                                             
475183    ADB5485080180       20250321IAD01748175                                        M1 PHUYAL                                  RAJAN                                                                           19891107NEPAL                                   1 133010/218            524     ADSIDDHICHARANNAGARPALIKA02                                                                                               446009779842973814                                                O1105001748175022                                NPRRAJAN PHUYAL                                      20250321P                   050                 AVDD      A9999     000000000000000                    10                                                                                                                                             
475183    ADB1912293436       20250323IAD01759373                                        F2 SAUD                                    RADHIKA                                                                         19970519NEPAL                                   1 75-01-71-04607      2 524     ADPARSHURAM12                                                                                                             446009779821622240                                                N0827201759373011                                NPRRADHIKA SAUD                                      20250323P                   272                 AVDD      A9999     000000000000000                    10                                                                                                                                             
475183    ADB6655142538       20250323IAD01725656                                        M1 MAGAR                                   MAHESH                                  THAMI                                   19831111NEPAL                                   1 2/2858              2 524     ADRIBDIKOT08                                                                                                              446009779805433651                                                O0425301725656010                                NPRMAHESH THAMI MAGAR                                20250323P                   253                 AVDD      A9999     000000000000000                    10                                                                                                     mahesh.thami@gmail.com                  
475183    ADB6169625193       20250319IAD05579078                                        F2 BARUWAL                                 NAMRATA                                                                         20071213NEPAL                                   1 35-01-80-10061      2 524     ADKHAIRAHANIMUNICIPALITY11                                                                                                446009779761894655                                                N0509105579078011                                NPRNAMRATA BARUWAL                                   20250319P                   091                 AVDD      A9999     000000000000000                    10                                                                                                                                             
475183    ADB6522821582       20250323IAD05581778                                        F2 ADHIKARI                                LAXMI                                                                           19881121NEPAL                                   1 313023/967          2 524     ADHETAUDANAGARPALIKA07                                                                                                    446009779865158742                                                N0509105581778010                                NPRLAXMI ADHIKARI                                    20250323P                   091                 AVDD      A9999     000000000000000                    10                                                                                                                                             
475183    ADB0219119979       20250323IAD05581674                                        M1 LOHAR                                   KAILO                                                                           19860526NEPAL                                   1 62844               2 524     ADDAHA8JAJARKOT                                                                                                           446009779862442079                                                N0316405581674017                                NPRKAILO LOHAR                                       20250323P                   164                 AVDD      A9999     000000000000000                    10                                                                                                                                             
475183    ADB3245519497       20250323IAD01769667                                        M1 THARU                                   RABINDRA                                KUMAR                                   19941103NEPAL                                   1 3026/104              524     ADNAYAGAU01BHARATPUR20                                                                                                    446009779868257710       9868257710                               O0509301769667015                                NPRRABINDRA K THARU                                  20250323P                   093                 AVDD      A9999     000000000000000                    10                                                                                                                                             
475183    ADB5666973339       20250323IAD00159776                                        M1 ACHARYA                                 MADHAV                                  DEV                                     19750415NEPAL                                   1 3189/3754           2 524     ADGHORAHI12                                                                                                               446009779841279197                                                N0209500159776018                                NPRMADHAV DEV ACHARYA                                20250323P                   095                 AVDD      A9999     000000000000000                    10                                                                                                                                             
475183    ADB1840835364       20250323IAD00000643                                        M1 TIMSINA                                 CHETAN                                  DAS                                     19700101NEPAL                                                           524     ADINDRAPUR                                MORANG                                  MORANG                                  446009779841870591                                                O0100200000643013                                NPRCHETAN DAS  TIMSINA                               20250323P                   002                 AVDD      A9999     000000000000000                    10                                                                                                                                             
475183    ADB9377944435       20250323IAD05579507                                        F2 REULE                                   NISHA                                                                           20060220NEPAL                                   1 55-01-79-02967      1 524     ADSHARADA07SALYAN                                                                                                         446009779762764705                                                N0919805579507017                                NPRNISHA REULE                                       20250323P                   198                 AVDD      A9999     000000000000000                    10                                                                                                                                             
475183    ADB7585265175       20250323IAD05579144                                        F2 THAPA                                   MANSUWA                                                                         20050408NEPAL                                   1 40-01-79-02497      1 524     ADSANDHIKHARKA08                                                                                                          446009779765314362                                                N0416105579144012                                NPRMANSUWA THAPA                                     20250323P                   161                 AVDD      A9999     000000000000000                    10                                                                                                                                             
475183    ADB2942933328       20250323IAD05580113                                        F2 DHAKAL                                  NITU                                                                            19921102NEPAL                                   1 411035/74259        2 524     ADGAINDAKOTMUNICIPALITY07                                                                                                 446009779847418856                                                N0524405580113017                                NPRNITU DHAKAL                                       20250323P                   244                 AVDD      A9999     000000000000000                    10                                                                                                                                             
475183    ADB4331269120       20250323IAD05580491                                        F2 KHATUN                                  APSANA                                                                          19960208NEPAL                                   1 333085/25           2 524     ADBIRGUNJ17                               BIRGUNJ17                               BIRGUNJ17                               446009779815291500                                                N0527705580491016                                NPRAPSANA KHATUN                                     20250323P                   277                 AVDD      A9999     000000000000000                    10                                                                                                                                             
475183    ADB3836504524       20250323IAD05580688                                        M1 GURUNG                                  RAKESH                                                                          19850511NEPAL                                   1 29569               2 524     ADSNP02MEUDIHAWA                                                                                                          446009779817498876                                                N0414605580688013                                NPRRAKESH GURUNG                                     20250323P                   146                 AVDD      A9999     000000000000000                    10                                                                                                                                             
475183    ADB6060306959       20250323IAD01538199                                        M1 GURUNG                                  SABINA                                                                          19700101NEPAL                                                           524     ADNA                                      CHAKDOL                                 CHAKDOL                                 446009779808305162                                                O0210901538199011                                NPRSABINA GURUNG                                     20250323P                   109                 AVDD      A9999     000000000000000                    10                                                                                                                                             
475183    ADB9355263895       20250323IAD05582131                                        M1 TAMANG                                  SUN                                     BAHADUR                                 19910129NEPAL                                   6 253021/24           2 524     ADTADI02                                                                                                                  446009779766868387                                                N0210905582131010                                NPRSUN BAHADUR TAMANG                                20250323P                   109                 AVDD      A9999     000000000000000                    10                                                                                                                                             
475183    ADB6858881622       20250323IAD01828124                                        F1 CHAUDHARY                               CHANDRA                                 REKHA                                   20021225NEPAL                                   1 33-07-77-00179        524     ADKOHALBI04                               NAGARJUN  KATHMANDU                     NAGARJUN  KATHMANDU                     446009779813944709       9812245330                               O0210901828124013                                NPRCHANDRA R CHAUDHARY                               20250323P                   109                 AVDD      A9999     000000000000000                    10                                                                                                                                             
475183    ADB3385300472       20250323IAD05226425                                        F2 DARUKA                                  MINA                                    KUMARI                                  19790203NEPAL                                   1 160325887           3 524     ADBIRJUNG06                                                                                                               446009779845187035                                                N0509205226425012                                NPRMINA KUMARI DARUKA                                20250323P                   092                 AVDD      A9999     000000000000000                    10                                                                                                                                             
475183    ADB3514850212       20250321IAD00000838                                        M1 SHRESTHA                                DIL                                     BAHADUR                                 19700101NEPAL                                                           524     ADKATHMANDU                               KATHMANDU                               KATHMANDU                               446009779851141147                                                O0100200000838019                                NPRDIL BAHADUR  SHRESTHA                             20250321P                   002                 AVDD      A9999     000000000000000                    10                                                                                                                                             
475183    ADB3340126109       20250323IAD01986134                                        M1 SHRESTHA                                NABIN                                                                           19980423NEPAL                                   1 AD01986134            524     ADCHANDRAGIRIMUNICIPALITY12                                                                                               446009779841556595                                                O0227301986134014                                NPRNABIN SHRESTHA                                    20250323P                   273                 AVDD      A9999     000000000000000                    10                                                                                                                                             
475183    ADB5237415063       20250323IAD01674789                                        M1 POKHREL                                 RAMESH                                  KUMAR                                   19700604NEPAL                                   1 54/2054               524     ADBUDHANILKANTHA9NEWKOLONIKTM                                                                                             446009779841592148                                                O0210401674789014                                NPRRAMESH K POKHREL                                  20250323P                   104                 AVDD      A9999     000000000000000                    10                                                                                                                                             
475183    ADB2917186861       20250323IAD05580263                                        M1 TAMANG                                  RAJU                                                                            19810218NEPAL                                   1 84058               2 524     ADKALYANPUR07BIDUR13                                                                                                      446009779742458560                                                N0213205580263024                                NPRRAJU TAMANG                                       20250323P                   132                 AVDD      A9999     000000000000000                    10                                                                                                                                             
475183    ADB2636427200       20250323IAD05580464                                        M1 PUDASAINI                               POST                                    BAHADUR                                 19860123NEPAL                                   1 77915               2 524     ADJILLING09BELKOTGADHI09                                                                                                  446009779763236376                                                N0213205580464021                                NPRPOST B PUDASAINI                                  20250323P                   132                 AVDD      A9999     000000000000000                    10                                                                                                                                             
475183    ADB2808999749       20250323IAD01552880                                        M1 GUPTA                                   CHANDAN                                 KUMAR                                   19980713NEPAL                                   5 4764/2019           1 524     ADNIMOIYA06BIDUR1                                                                                                         446009779840183421                                                N0213201552880012                                NPRCHANDAN KUMAR GUPTA                               20250323P                   132                 AVDD      A9999     000000000000000                    10                                                                                                                                             
475183    ADB0727193444       20250323IAD05577981                                        M1 GUPTA                                   KRISHNA                                 KUMAR                                   19940101NEPAL                                   5 1506/2022           2 524     ADBIDUR01                                                                                                                 446009779741862957                                                N0213205577981013                                NPRKRISHNA KUMAR GUPTA                               20250323P                   132                 AVDD      A9999     000000000000000                    10                                                                                                                                             
475183    ADB0512440654       20250323IAD00601692                                        M1 KUNWAR                                  GOKARNA                                                                         19700101NEPAL                                                           524     ADPURKOT                                  DAHAGULMI                               DAHAGULMI                               446009779841712594                                                O0415900601692011                                NPRGOKARNA  KUNWAR                                   20250323P                   159                 AVDD      A9999     000000000000000                    10                                                                                                                                             
475183    ADB2100635256       20250323IAD00001882                                        M1 ARYAL                                   MADHU                                   SUDAN                                   19700101NEPAL                                                           524     ADLALITPUR                                LALITPUR                                LALITPUR                                446009779851231522                                                O0100200001882011                                NPRMADHU SUDAN  ARYAL                                20250323P                   002                 AVDD      A9999     000000000000000                    10                                                                                                                                             
475183    ADB4464045077       20250323IAD00890312                                        M1 SINGH                                   ABHISHEK                                KUMAR                                   19950101NEPAL                                   1 19/2056/743         1 524     ADISHWORPUR01                                                                                                             446009779844117878                                                N1006500890312013                                NPRABHISHEK K SINGH                                  20250323P                   065                 AVDD      A9999     000000000000000                    10                                                                                                                                             
475183    ADB4077475688       20250323IAD01053052                                        M1 GOTHE                                   SURESH                                                                          19700101NEPAL                                                           524     ADBHAKTAPUR                               BHAKTAPUR                               BHAKTAPUR                               446009779841131116                                                O0100201053052013                                NPRSURESH  GOTHE                                     20250323P                   002                 AVDD      A9999     000000000000000                    10                                                                                                                                             
475183    ADB6795463117       20250323IAD01053413                                        M1 BHANDARI                                DURGA                                                                           19700101NEPAL                                                           524     ADSINDHUPALCHOK                           SINDHUPALCHOK                           SINDHUPALCHOK                           446009779841583508                                                O0100201053413016                                NPRDURGA  BHANDARI                                   20250323P                   002                 AVDD      A9999     000000000000000                    10                                                                                                                                             
475183    ADB7667587150       20250323IAD00715214                                        M1 RIJAL                                   SHANTI                                  PRASAD                                  19700101NEPAL                                                           524     ADDULLU                                   DULLU                                   DULLU                                   446009779858067766                                                O0100200715214012                                NPRSHANTI PRASAD  RIJAL                              20250323P                   002                 AVDD      A9999     000000000000000                    10                                                                                                     shantirijal6@gmail.com                  
