475183    ADB4838705843       20250318IAD03027681                                        F2 THAPA                                   ANJANA                                                                          20040103NEPAL                                   3 68-01-71-00162      2 524     ADPURBICHOUKIRURALMUNICIPALITY                                                                                            446009779744291524                                                O0822803027681015                                NPRANJANA THAPA                                      20250318P                   228                 AVDD      A9999     000000000000000                    10                                                                                                                                             
475183    ADB5120875516       20250320IAD01474019                                        M1 MOKTAN                                  RAJU                                                                            19700101NEPAL                                                           524     ADSARLAHI                                 HARIPUR                                 HARIPUR                                 446009779866892522                                                O0209501474019019                                NPRRAJU MOKTAN                                       20250320P                   095                 AVDD      A9999     000000000000000                    10                                                                                                                                             
475183    ADB1589962613       20250319IAD01134700                                        M1 TIWARI                                  NIRAJ                                                                           19841103NEPAL                                                           524     ADKHAIRWA8                                                                                                                446009779845185970                                                O0507301134700019                                NPRNIRAJ TIWARI                                      20250319P                   073                 AVDD      A9999     000000000000000                    10                                                                                                                                             
475183    ADB6734347618       20250312IAD00068794                                        M1 THAPA                                   BASANTA                                                                         19780504NEPAL                                                           524     ADNUWAKOTNARJAMANDAPGAIRIGAUN9                                                                                            446009779851223187                                                O0100200068794011                                NPRBASANTA  THAPA                                    20250312P                   002                 AVDD      A9999     000000000000000                    10                                                                                                     basu_thapa007@yahoo.com                 
475183    ADB3180518118       20250314IAD00001468                                        M1 THAPA                                   KAJI                                    RAM                                     19700101NEPAL                                                           524     ADLALITPUR                                LALITPUR                                LALITPUR                                446009779841294277                                                O0100200001468010                                NPRKAJI RAM  THAPA                                   20250314P                   002                 AVDD      A9999     000000000000000                    10                                                                                                                                             
475183    ADB2149783974       20250320IAD05013817                                        M1 SHAHI                                   SURENDRA                                BAHADUR                                 19841021NEPAL                                   1 9901                2 524     ADTIKAPUR1BLOCKNO23                                                                                                       446009779800685756       9848639322                               O0822205013817017                                NPRSURENDRA B SHAHI                                  20250320P                   222                 AVDD      A9999     000000000000000                    10                                                                                                                                             
475183    ADB9159204501       20250310IAD00309319                                        M1 GIRI                                    JYOTI                                   BALLAV                                  19771012NEPAL                                   1 28114/30114         2 524     ADBIRATNAGAR4                                                                                                             446009779803860684                                                O0602000309319010                                NPRJYOTI BALLAV GIRI                                 20250310P                   020                 AVDD      A9999     000000000000000                    10                                                                                                                                             
475183    ADB8270102297       20250321IAD01154356                                        M1 SAH                                     MAHESH                                                                          19700101NEPAL                                                           524     ADBIRGUNJ                                 BIRGUNJ                                 BIRGUNJ                                 446009779845192060                                                O0507201154356018                                NPRMAHESH SAH                                        20250321P                   072                 AVDD      A9999     000000000000000                    10                                                                                                                                             
475183    ADB7386566856       20250310IAD00361181                                        M1 RAI                                     SHRISTI                                                                         19700101NEPAL                                                           524     ADSURYODAYA                               WN                                      WN                                      446009779867992954                                                O0601000361181015                                NPRSHRISTI RAI                                       20250310P                   010                 AVDD      A9999     000000000000000                    10                                                                                                                                             
475183    ADB6032593158       20250320IAD00264691                                        M1 JOSHI                                   DHRUBA                                  RAJ                                     19600705NEPAL                                   1 689                   524     ADKTMBUDNILKANTHA07                                                                                                       446009779841600015       9841600015                               O0209900264691018                                NPRDHRUBA RAJ JOSHI                                  20250320P                   099                 AVDD      A9999     000000000000000                    10                                                                                                                                             
475183    ADB0499838743       20250313IAD05300833                                        F2 BHATTARAI                               KRISHNA                                                                         20040224NEPAL                                   1 61017804583         1 524     ADSHUBHAKALIKAGAPA05                                                                                                      446009779745512736                                                N0720705300833013                                NPRKRISHNA BHATTARAI                                 20250313P                   207                 AVDD      A9999     000000000000000                    10                                                                                                                                             
475183    ADB5087556764       20250310IAD05151749                                        M1 NEPALI                                  HARISH                                                                          20030202NEPAL                                   1 68-011-77-0217      1 524     ADDISINAPA9                                                                                                               446009779848422506                                                O0822805151749011                                NPRHARISH NEPALI                                     20250310P                   228                 AVDD      A9999     000000000000000                    10                                                                                                                                             
475183    ADB8759541010       20250316IAD00128075                                        M1 KARMACHARYA                             SANJEEMA                                KUMARI                                  19891115NEPAL                                                           524     ADNEPALGUNJ3                                                                                                              446009779848027017                                                O0100200128075018                                NPRSANJEEMA KU.  KARMACHARYA                         20250316P                   002                 AVDD      A9999     000000000000000                    10                                                                                                                                             
475183    ADB5885183721       20250316IAD00651946                                        M1 DAMAI                                   NAINE                                                                           19580603NEPAL                                   1 2/1614              2 524     ADSANPHEBAGAR5CHHIPEKHOLA                                                                                                 446009779845957977                                                O0822700651946011                                NPRNAIN SINGH THALARI                                20250316P                   227                 AVDD      A9999     000000000000000                    10                                                                                                                                             
475183    ADB6820121220       20250316IAD05169051                                        F2 DHAMI                                   SARSWATI                                KUMARI                                  19950909NEPAL                                   1 733059/15           2 524     ADSIGASGAPA02BAITDI                                                                                                       446009779865795171                                                N0826605169051017                                NPRSARSWATI K DHAMI                                  20250316P                   266                 AVDD      A9999     000000000000000                    10                                                                                                                                             
475183    ADB9074850839       20250306IAD02004892                                        M1 MISHRA                                  KESHAV                                                                          19980703NEPAL                                   1 04-01-71-04290        524     AD6MECHINAGARMUNICIPALITY                                                                                                 446009779814002625                                                O0100202004892010                                NPRKESHAV MISHRA                                     20250306P                   002                 AVDD      A9999     000000000000000                    10                                                                                                     keshavmishra505@gmail.com               
475183    ADB1578740370       20250113IAD01755686                                        F  BHANDARI                                TIKA                                    KUMARI                                  19980727NEPAL                                   1 632044/835            524     ADDULLUNAGARPALIKA                                                                                                        446009779848013739                                                O0720901755686012                                NPRTIKA K BHANDARI                                   20250113P                   209                 AVDD      A9999     000000000000000                    10                                                                                                                                             
475183    ADB6855297833       20250319IAD01200613                                        M1 NEUPANE                                 RAMILA                                                                          19700101NEPAL                                                           524     ADBHAKTAPUR                               BHAKTAPUR                               BHAKTAPUR                               446009779841648827                                                O0212101200613016                                NPRRAMILA NEUPANE                                    20250319P                   121                 AVDD      A9999     000000000000000                    10                                                                                                                                             
475183    ADB3439465137       20250314IAD05173718                                        M1 DEVKOTA                                 GOBINDA                                 PRASAD                                  19990124NEPAL                                   1 63-02-74-008031     1 524     ADDULLU08                                                                                                                 446009779709913800                                                N0720905173718012                                NPRGOBINDA P DEVKOTA                                 20250314P                   209                 AVDD      A9999     000000000000000                    10                                                                                                                                             
475183    ADB9082183147       20250309IAD02004901                                        M1 KHANAL                                  NABIN                                                                           20000308NEPAL                                   1 03-01-73-01390        524     AD7ILAMMUNICIPALITY                                                                                                       446009779844616755                                                O0601002004901010                                NPRNABIN KHANAL                                      20250309P                   010                 AVDD      A9999     000000000000000                    10                                                                                                     nabinkhanal908@gmail.com                
475183    ADB4688080183       20250318IAD01310416                                        M1 TRADERS                                 SUBHALAV                                                                        19861118NEPAL                                   1 1/05/56828          2 524     ADMAYADEVI8                                                                                                               446009779700531011                                                O0415401310416010                                NPRSUBHALAV TRADERS                                  20250318P                   154                 AVDD      A9999     000000000000000                    10                                                                                                                                             
475183    ADB0783776915       20250316IAD01764023                                        M1 GHIMIRE                                 KEDAR                                                                           19800814NEPAL                                   1 36282                 524     ADGAIDAKOT13SIKHRAAULI                                                                                                    446009779841848062       9841848062                               O0209701764023019                                NPRKEDAR GHIMIRE                                     20250316P                   097                 AVDD      A9999     000000000000000                    10                                                                                                                                             
475183    ADB9282501866       20250321IAD01767759                                        F2 GAUTAM                                  SAJANA                                                                          19940214NEPAL                                   1 27/1040/80071         524     ADSYUCHATAR07KATHMANDU                                                                                                    446009779849447405                                                O0210101767759014                                NPRSAJANA GAUTAM                                     20250321P                   101                 AVDD      A9999     000000000000000                    10                                                                                                                                             
475183    ADB2752194205       20250311IAD00626002                                        M1 DAHAL                                   NABARAJ                                                                         19770717NEPAL                                   1 2303-231            2 524     ADPATHARISANISCHARE05                                                                                                     446009779805389296                                                N0601700626002039                                NPRNABARAJ DAHAL                                     20250311P                   017                 AVDD      A9999     000000000000000                    10                                                                                                                                             
475183    ADB8584990257       20250318IAD01986109                                        F2 B.K.                                    MENUKA                                                                          19881229NEPAL                                   1 403005/332          1 524     ADRURUKSHETRAGAPA01GULMI                                                                                                  446009779869930181                                                N0416001986109019                                NPRMENUKA B.K.                                       20250318P                   160                 AVDD      A9999     000000000000000                    10                                                                                                                                             
475183    ADB9712820686       20250319IAD05205044                                        F2 BHUSAL                                  DURGA                                                                           20010514NEPAL                                   1 41017903505         2 524     ADMADANE02                                                                                                                446009779749368639       9749368639                               N0425405205044012                                NPRDURGA BHUSAL                                      20250319P                   254                 AVDD      A9999     000000000000000                    10                                                                                                     d9078409@gmail.com                      
475183    ADB1638569507       20250311IAD05301038                                        M1 MAJHI                                   AARYAN                                                                          20040727NEPAL                                   1 63-02-80-01096      1 524     ADAATHABISNAPA04                                                                                                          446009779765456284                                                O0728505301038012                                NPRAARYAN MAJHI                                      20250311P                   285                 AVDD      A9999     000000000000000                    10                                                                                                                                             
475183    ADB0080493245       20250318IAD01692823                                        M1 SAH                                     SUVASH                                  PRASAD                                  19980123NEPAL                                   1 34017012157           524     ADJEETPUR6                                                                                                                446009779845709727                                                O0527701692823016                                NPRSUVASH PRASAD SAH                                 20250318P                   277                 AVDD      A9999     000000000000000                    10                                                                                                                                             
475183    ADB5874133100       20250320IAD01542651                                        M1 JYOTI                                   PARAKASH                                                                        19700101NEPAL                                                           524     ADRAMIDANDA                               TALIAGARJAJARKOT                        TALIAGARJAJARKOT                        446009779866164692                                                O0720901542651010                                NPRPARAKASH JYOTI                                    20250320P                   209                 AVDD      A9999     000000000000000                    10                                                                                                                                             
475183    ADB5219320511       20250318IAD01128913                                        F2 SHRESTHA                                ANU                                                                             19971224NEPAL                                   1 28017203911         2 524     ADMAHALAXMI08                                                                                                             446009779860503293                                                N0100201128913011                                NPRANU SHRESTHA                                      20250318P                   002                 AVDD      A9999     000000000000000                    10                                                                                                     anustha172@gmail.com                    
475183    ADB7444485273       20250319IAD05404058                                        F2 BATALA                                  KRISTI                                                                          19980215NEPAL                                   1 672002/52043        2 524     ADLAMKICHUHA02                                                                                                            446009779742412036                                                N0720705404058011                                NPRKRISTI BATALA                                     20250319P                   207                 AVDD      A9999     000000000000000                    10                                                                                                                                             
475183    ADB8805487503       20250314IAD05459688                                        M1 ACHARYA                                 PAWAN                                                                           19920720NEPAL                                   1 461001/12357        1 524     ADPOKHARA06                                                                                                               446009779825182438                                                N0316405459688015                                NPRPAWAN ACHARYA                                     20250314P                   164                 AVDD      A9999     000000000000000                    10                                                                                                     pawanacharya2018@gmail.com              
475183    ADB6767200168       20250318IAD05415091                                        M1 PUN                                     THANESHWOR                                                                      20060123NEPAL                                   1 50-05-79-00615      1 524     ADBADIGAD04                                                                                                               446009779840610808                                                N0316405415091011                                NPRTHANESHWOR PUN                                    20250318P                   164                 AVDD      A9999     000000000000000                    10                                                                                                                                             
475183    ADB8861274285       20250317IAD00489161                                        M1 GHALE                                   BABITA                                                                          19700101NEPAL                                                           524     ADKTM                                     KTM                                     KTM                                     446009779846757994                                                O0100200489161016                                NPRBABITA  GHALE                                     20250317P                   002                 AVDD      A9999     000000000000000                    10                                                                                                                                             
475183    ADB3044079354       20250321IAD05006084                                        M1 KULUNG                                  SURESH                                                                          19980415NEPAL                                   1 113008-3            2 524     ADSOTANGRM2CHEPEL                                                                                                         446009779709775255                                                N1125505006084012                                NPRSURESH KULUNG                                     20250321P                   255                 AVDD      A9999     000000000000000                    10                                                                                                                                             
475183    ADB4188330096       20250307IAD05572839                                        F2 OLI                                     RICHA                                                                           19981230NEPAL                                   1 35-01-74-10844      2 524     ADRAPTIMUNICIPALITY03                                                                                                     446009779849529618                                                N0509105572839015                                NPRRICHA OLI                                         20250307P                   091                 AVDD      A9999     000000000000000                    10                                                                                                     richaolirbl@gmail.com                   
475183    ADB6682541107       20250310IAD05298017                                        M1 KARKI                                   JIT                                     BAHADUR                                 19761020NEPAL                                   1 1433                2 524     ADKHAIRAHANIMUNICIPALITY03                                                                                                446009779849258665                                                N0509105298017011                                NPRJIT BAHADUR KARKI                                 20250310P                   091                 AVDD      A9999     000000000000000                    10                                                                                                                                             
475183    ADB0365793698       20250317IAD05577271                                        F2 CHAUDHARY                               SABNAM                                                                          20070308NEPAL                                   1 35-01-81-08839      1 524     ADKHAIRAHANI12                                                                                                            446009779761733648                                                N0509105577271017                                NPRSABNAM CHAUDHARY                                  20250317P                   091                 AVDD      A9999     000000000000000                    10                                                                                                     chaudharysabnam628@gmail.com            
475183    ADB6158510130       20250316IAD05574341                                        F2 OJHA                                    PUSPANJALI                                                                      20071105NEPAL                                   1 73-01-80-04950      1 524     ADMELAULIMUNICIPILITY07                                                                                                   446009779767226422                                                N0823905574341017                                NPRPUSPANJALI OJHA                                   20250316P                   239                 AVDD      A9999     000000000000000                    10                                                                                                                                             
475183    ADB2034193825       20250316IAD05574354                                        F2 OJHA                                    MAMATA                                                                          20071230NEPAL                                   1 73-01-81-05879      1 524     ADMELAULIMUNICIPALITY07                                                                                                   446009779767670149                                                N0823905574354011                                NPRMAMATA OJHA                                       20250316P                   239                 AVDD      A9999     000000000000000                    10                                                                                                                                             
475183    ADB7988457452       20250316IAD05574207                                        F2 CHAND                                   SANGITA                                                                         20040824NEPAL                                   1 73-01-80-05412      1 524     ADMELAULIMUNICIPILITY04                                                                                                   446009779766424255                                                N0823905574207019                                NPRSANGITA CHAND                                     20250316P                   239                 AVDD      A9999     000000000000000                    10                                                                                                                                             
475183    ADB6733573033       20250316IAD05574199                                        F2 BHATT                                   KALPANA                                                                         20050921NEPAL                                   1 73-01-80-05758      1 524     ADMELAULIMUNICIPILITY06                                                                                                   446009779763308037                                                N0823905574199016                                NPRKALPANA BHATT                                     20250316P                   239                 AVDD      A9999     000000000000000                    10                                                                                                                                             
475183    ADB2910743398       20250316IAD05574181                                        F2 NAYAK                                   KABITA                                                                          20060208NEPAL                                   1 73-01-81-02686      1 524     ADMELAULIMUNICIPILITY01                                                                                                   446009779769906220                                                N0823905574181011                                NPRKABITA NAYAK                                      20250316P                   239                 AVDD      A9999     000000000000000                    10                                                                                                                                             
475183    ADB0865823823       20250316IAD05574163                                        F2 NEGI                                    PRAMILA                                                                         20060913NEPAL                                   1 73-01-81-02898      1 524     ADMELAULIMUNICIPILITY01                                                                                                   446009779766593723                                                N0823905574163011                                NPRPRAMILA NEGI                                      20250316P                   239                 AVDD      A9999     000000000000000                    10                                                                                                                                             
475183    ADB6244259968       20250316IAD05573981                                        F2 CHAND                                   LILA                                                                            20031021NEPAL                                   1 73-01-81-02846      1 524     ADMELAULIMUNICIPILITY01                                                                                                   446009779767692787                                                N0823905573981012                                NPRLILA CHAND                                        20250316P                   239                 AVDD      A9999     000000000000000                    10                                                                                                                                             
475183    ADB3917573308       20250317IAD05320140                                        F2 BIST                                    ANJU                                    KUMARI                                  20030418NEPAL                                   1 73-01-80-00699      2 524     ADPATANMUNICIPALITY03                                                                                                     446009779766970155                                                N0823905320140011                                NPRANJU KUMARI BIST                                  20250317P                   239                 AVDD      A9999     000000000000000                    10                                                                                                                                             
475183    ADB1657109698       20250317IAD05059382                                        F2 MAHARABHAT                              SHAYANU                                                                         19990211NEPAL                                   1 73-10-74-00187      2 524     ADPATAN03                                                                                                                 446009779742399720                                                N0823905059382010                                NPRSHAYANU MAHARABHAT                                20250317P                   239                 AVDD      A9999     000000000000000                    10                                                                                                                                             
475183    ADB4526000157       20250316IAD05576970                                        M1 THARU                                   GOPAL                                                                           20040820NEPAL                                   1 37-02-79-06151      1 524     ADSHUDDHODHAN02MAHUBARI                                                                                                   446009779815454948                                                N0424505576970018                                NPRGOPAL THARU                                       20250316P                   245                 AVDD      A9999     000000000000000                    10                                                                                                                                             
475183    ADB8051663265       20250320IAD01767015                                        M1 PANGANI                                 SHYAM                                   PRASAD                                  19890315NEPAL                                   1 37586                 524     ADSUDDODHANGAPA03RUPENDEHI                                                                                                446009779805490645                                                O0424501767015010                                NPRSHYAM P PANGANI                                   20250320P                   245                 AVDD      A9999     000000000000000                    10                                                                                                                                             
475183    ADB8719731351       20250310IAD05573995                                        M1 TUMBAPO                                 ADIP                                                                            19940214NEPAL                                   1 020106604802        2 524     ADCHOKMAGU                                                                                                                446009779767471996                                                N0601205573995013                                NPRADIP TUMBAPO                                      20250310P                   012                 AVDD      A9999     000000000000000                    10                                                                                                                                             
475183    ADB7035829753       20250317IAD05546901                                        F2 LAWATI                                  BIJAYA                                                                          19951014NEPAL                                   1 16632247            2 524     ADLUMPHABUNG1                                                                                                             446009779815984592                                                N0601205546901015                                NPRBIJAYA LAWATI                                     20250317P                   012                 AVDD      A9999     000000000000000                    10                                                                                                                                             
475183    ADB6293598653       20250319IAD05213674                                        M1 NEMBANG                                 RAJU                                                                            20010228NEPAL                                   1 02-01-7401458       1 524     ADPHIDIM13                                                                                                                446009779816976601       9816976601                               O0601205213674011                                NPRRAJU NEMBANG                                      20250319P                   012                 AVDD      A9999     000000000000000                    10                                                                                                                                             
475183    ADB1162692022       20250312IAD00360519                                        M1 HASAN                                   MO                                      ALI                                     19680417NEPAL                                   1 1155                2 524     ADSURYODAYAMUNICIPALITY                                                                                                   446009779842647773                                                N0601000360519012                                NPRMO ALI HASAN                                      20250312P                   010                 AVDD      A9999     000000000000000                    10                                                                                                                                             
475183    ADB1506637445       20250318IAD00359541                                        M1 RAI                                     TARA                                    KUMAR                                   20130513NEPAL                                   1 1978                2 524     ADSURYODAYAMUNICIPALITY                                                                                                   446009779763746585                                                N0601000359541012                                NPRTARA KUMAR RAI                                    20250318P                   010                 AVDD      A9999     000000000000000                    10                                                                                                                                             
475183    ADB0215988938       20250311IAD05520696                                        M1 KARKI                                   CHANDRA                                 BAHADUR                                 19940419NEPAL                                   1 621029/313          2 524     ADBHUR8                                                                                                                   446009779861834120                                                N0720205520696014                                NPRCHANDRA B KARKI                                   20250311P                   202                 AVDD      A9999     000000000000000                    10                                                                                                                                             
475183    ADB3376637897       20250311IAD05520709                                        F2 SHAH                                    KAMANA                                                                          19820604NEPAL                                   1 2702                3 524     ADKHALANGA05                                                                                                              446009779848135808                                                N0720205520709019                                NPRKAMANA SHAH                                       20250311P                   202                 AVDD      A9999     000000000000000                    10                                                                                                                                             
475183    ADB1812722895       20250312IAD05566539                                        M1 CHAUDHARI                               NARESH                                                                          19930729NEPAL                                   1 651021/668          2 524     ADSURYAPATUWA5                                                                                                            446009779847104959                                                N0720205566539010                                NPRNARESH CHAUDHARI                                  20250312P                   202                 AVDD      A9999     000000000000000                    10                                                                                                                                             
475183    ADB1633300625       20250312IAD05572941                                        F2 MAGAR                                   TULSI                                   THAPA                                   19900914NEPAL                                   1 5340027654          2 524     ADSITAPUR9                                                                                                                446009779814526545                                                N0720205572941017                                NPRTULSI THAPA MAGAR                                 20250312P                   202                 AVDD      A9999     000000000000000                    10                                                                                                                                             
475183    ADB4929548348       20250312IAD05525553                                        M1 GAUTAM                                  NABIN                                                                           20060113NEPAL                                   1 66-06-78-04707      1 524     ADKOHALPUR14                                                                                                              446009779865317219                                                N0720205525553017                                NPRNABIN GAUTAM                                      20250312P                   202                 AVDD      A9999     000000000000000                    10                                                                                                                                             
475183    ADB4521180702       20250309IAD05573280                                        F2 PANERU                                  SARALA                                  KHANAL                                  19840928NEPAL                                   1 8003/061            2 524     ADPOKHARA12                                                                                                               446009779846175196                                                N0316405573280018                                NPRSARALA K PANERU                                   20250309P                   164                 AVDD      A9999     000000000000000                    10                                                                                                                                             
475183    ADB0750021812       20250309IAD01661023                                        F  PUN                                     NAR                                     MAYA                                    19950709NEPAL                                   1 501013/37975          524     ADKATHEHKOLA04                                                                                                            446009779847662474                                                O0316401661023011                                NPRNAR MAYA PUN                                      20250309P                   164                 AVDDNGP   A9999     000000000000000                    10                                                                                                                                             
475183    ADB8215528232       20250309IAD01226803                                        M1 SHAH                                    SIMA                                                                            19980425NEPAL                                                           524     ADGANESHPUR4NEPALGUNJ                                                                                                     446009779708923757                                                O0316401226803013                                NPRSEEMA SHAH                                        20250309P                   164                 AVDD      A9999     000000000000000                    10                                                                                                                                             
475183    ADB6184680015       20250310IAD00096239                                        M1 PAUDEL                                  BASUDEV                                                                         19700101NEPAL                                                           524     ADPOKHARAKASKI                            POKHARAKASKI                            POKHARAKASKI                            446009779846036595                                                O0316400096239017                                NPRBASUDEV  PAUDEL                                   20250310P                   164                 AVDD      A9999     000000000000000                    10                                                                                                                                             
475183    ADB4010448321       20250311IAD05575253                                        F2 REGMI                                   AASTHA                                                                          19950308NEPAL                                   1 42-01-75-01758      2 524     ADWALLING08                                                                                                               446009779840971613                                                N0316405575253018                                NPRAASTHA REGMI                                      20250311P                   164                 AVDD      A9999     000000000000000                    10                                                                                                                                             
475183    ADB8694922838       20250311IAD05575237                                        F2 ARYAL                                   RAM                                     PRASAD                                  19930324NEPAL                                   1 42-01-72-02261      2 524     ADBHIRKOT03                                                                                                               446009779824155254                                                N0316405575237012                                NPRRAM PRASAD ARYAL                                  20250311P                   164                 AVDD      A9999     000000000000000                    10                                                                                                                                             
475183    ADB4929190459       20250312IAD00211060                                        F2 PARIYAR                                 UJELI                                   DEBI                                    19910307NEPAL                                   1 1506                2 524     ADPOKHARA12                                                                                                               446009779846295464                                                N0316400211060018                                NPRUJELI DEBI PARIYAR                                20250312P                   164                 AVDD      A9999     000000000000000                    10                                                                                                                                             
475183    ADB4248134800       20250314IAD01007682                                        M1 GURUNG                                  THAN                                    BAHADUR                                 19700101NEPAL                                                           524     ADPOKHARAKASKI                            POKHARAKASKI                            POKHARAKASKI                            446009779804134642                                                O0316401007682014                                NPRTHAN BAHADUR  GURUNG                              20250314P                   164                 AVDD      A9999     000000000000000                    10                                                                                                                                             
475183    ADB5543194082       20250316IAD00500744                                        M1 PAUDEL                                  RAM.P                                                                           19700101NEPAL                                                           524     ADBACHCHA                                 PARBAT                                  PARBAT                                  446009779856031386                                                O0316400500744014                                NPRRAM.P PAUDEL                                      20250316P                   164                 AVDD      A9999     000000000000000                    10                                                                                                                                             
475183    ADB6013592625       20250318IAD00211200                                        F2 BIJUKCHHE                               ANJU                                                                            19711128NEPAL                                   1 461001/10187        2 524     ADPOKHARA5KASKI                                                                                                           446009779846036800                                                N0316400211200014                                NPRANJU BIJUKCHHE                                    20250318P                   164                 AVDD      A9999     000000000000000                    10                                                                                                                                             
475183    ADB4352311505       20250318IAD05576604                                        M1 KARKI                                   BIKRAM                                  BABU                                    19870111NEPAL                                   1 64012               2 524     ADPOKHARA14                                                                                                               446009779856062620                                                N0316405576604019                                NPRBIKRAM BABU KARKI                                 20250318P                   164                 AVDD      A9999     000000000000000                    10                                                                                                     bikrambabukarki@gmail.com               
475183    ADB0695989755       20250319IAD05579254                                        M1 GURUNG                                  SANJAYA                                                                         19940318NEPAL                                   1 461002/4674         2 524     ADPOKHARA29                                                                                                               446009779846744256                                                N0316405579254019                                NPRSANJAYA GURUNG                                    20250319P                   164                 AVDD      A9999     000000000000000                    10                                                                                                                                             
475183    ADB2485143503       20250319IAD01846666                                        F  ALE                                     LALITA                                                                          19880817NEPAL                                   1 429008/139            524     ADBIRUWA05                                                                                                                446009779806726204                                                O0317401846666011                                NPRLALITA ALE                                        20250319P                   174                 AVDD      A9999     000000000000000                    10                                                                                                                                             
475183    ADB1072937802       20250319IAD01541728                                        M1 SHARMA                                  SABITA                                                                          19700101NEPAL                                                           524     ADPOKHARA                                 KASKI                                   KASKI                                   446009779846917338                                                O0316401541728011                                NPRSABITA SHARMA                                     20250319P                   164                 AVDD      A9999     000000000000000                    10                                                                                                                                             
475183    ADB3563495435       20250319IAD00209183                                        M1 BHATTARAI                               HOM                                     BAHADUR                                 19740527NEPAL                                   2 1273                2 524     ADGORKHA                                                                                                                  446009779856024580                                                N0316400209183013                                NPRHOM B BHATTARAI                                   20250319P                   164                 AVDD      A9999     000000000000000                    10                                                                                                                                             
475183    ADB7283453971       20250210IAD05314760                                        F2 LIMBU                                   PARBATA                                                                         19971108NEPAL                                   1 08-01-71-00452      1 524     ADMYANGLUNGMUNICIPALITY07                                                                                                 446009779842379673                                                O0100205314760024                                NPRPARBATA LIMBU                                     20250210P                   002                 AVDD      A9999     000000000000000                    10                                                                                                                                             
475183    ADB0871174910       20250311IAD05572428                                        M1 KANU                                    SHATRUDHAN                              SAH                                     20041005NEPAL                                   1 34-01-79-05687      1 524     ADPOKHARIYA03                                                                                                             446009779816646951                                                N0507205572428012                                NPRSHATRUDHAN SAH KANU                               20250311P                   072                 AVDD      A9999     000000000000000                    10                                                                                                                                             
475183    ADB5963335238       20250311IAD05571559                                        F2 KUMHAL                                  AARTI                                   KUMARI                                  20050328NEPAL                                   1 34018017211         1 524     ADPOKHARIYA04                                                                                                             446009779700541688                                                N0507205571559016                                NPRAARTI KUMARI KUMHAL                               20250311P                   072                 AVDD      A9999     000000000000000                    10                                                                                                                                             
475183    ADB7819353343       20250311IAD05558203                                        F2 DEVI                                    KABITA                                                                          19970529NEPAL                                   1 34-01-75-16727      2 524     ADPOKHARIYA08                                                                                                             446009779742470487                                                N0507205558203016                                NPRKABITA DEVI                                       20250311P                   072                 AVDD      A9999     000000000000000                    10                                                                                                                                             
475183    ADB7322001050       20250311IAD01873369                                        M1 TELI                                    AWADHESH                                PRASAD                                  19950921NEPAL                                   1 34017007728           524     ADPOKHARIYA02                                                                                                             446009779826288042                                                O0507201873369016                                NPRAWADHESH P TELI                                   20250311P                   072                 AVDD      A9999     000000000000000                    10                                                                                                                                             
475183    ADB0987382821       20250318IAD01923896                                        M1 KURMI                                   RAMESH                                  PRASAD                                  19791111NEPAL                                   1 36231447            2 524     ADPOKHARIYANAGARPALIKA7                   POKHARIYA                               POKHARIYA                               446009779863688219                                                N0507201923896012                                NPRRAMESH PRASAD KURMI                               20250318P                   072                 AVDD      A9999     000000000000000                    10                                                                                                                                             
475183    ADB1876159299       20250318IAD01537205                                        M1 KANU                                    HARISHANKAR                             SAH                                     19700101NEPAL                                                           524     ADPOKHARIYA                               PARSA                                   PARSA                                   446009779815260382                                                O0507201537205013                                NPRHARISHANKAR SAH KANU                              20250318P                   072                 AVDD      A9999     000000000000000                    10                                                                                                                                             
475183    ADB2713843243       20250318IAD01149683                                        M1 CHAMAR                                  SATYANARAYAN                            MAHARA                                  19720412NEPAL                                   1 09462268            2 524     ADBASANTPUR07                                                                                                             446009779806861253                                                O0507201149683019                                NPRSATYANARAYAN M CHAM                               20250318P                   072                 AVDD      A9999     000000000000000                    10                                                                                                                                             
475183    ADB2391760599       20250318IAD05578005                                        M1 KANU                                    RAMDHANI                                SAH                                     20030806NEPAL                                   1 34-01-81-07833      1 524     ADPOKHARIYA02                                                                                                             446009779709835439                                                N0507205578005016                                NPRRAMDHANI SAH KANU                                 20250318P                   072                 AVDD      A9999     000000000000000                    10                                                                                                                                             
475183    ADB9994196790       20250318IAD05578429                                        M1 SAH                                     MOTI                                    LAL                                     19880129NEPAL                                   1 3409462815          2 524     ADPOKHARIYA 02                                                                                                            446009779700611709                                                N0507205578429010                                NPRMOTI LAL SAH                                      20250318P                   072                 AVDD      A9999     000000000000000                    10                                                                                                                                             
475183    ADB0349365597       20250319IAD02023254                                        M1 YADAV                                   SUMIT                                   KUMAR                                   19900525NEPAL                                   1 151084/25           2 524     AD15SIRAHAMUNICIPALITY                                                                                                    446009779849135963                                                O0507202023254011                                NPRSUMIT KUMAR YADAV                                 20250319P                   072                 AVDD      A9999     000000000000000                    10                                                                                                     sumitydv9575@gmail.com                  
475183    ADB7690634611       20250319IAD05286858                                        F2 KUMARI                                  RENU                                                                            19911022NEPAL                                   1 341006/55           2 524     ADBAGESHWARITITRAWNA02                                                                                                    446009779809276361                                                O0507205286858018                                NPRRENU KUMARI                                       20250319P                   072                 AVDD      A9999     000000000000000                    10                                                                                                                                             
475183    ADB5012124507       20250320IAD05149374                                        M1 BIN                                     RAJENDRA                                RAUT                                    19940423NEPAL                                   1 34-01-69-04044      2 524     ADJAGARNATHPUR05                                                                                                          446009779811146129                                                O0507205149374011                                NPRRAJENDRA RAUT BIN                                 20250320P                   072                 AVDD      A9999     000000000000000                    10                                                                                                                                             
475183    ADB1051586985       20250317IAD02005076                                        M1 SHERCHAN                                GOPAL                                   RAJ                                     19570703NEPAL                                   1 6951/1062/4760        524     AD05TAMANKHOLARURALMUNICIPALITY                                                                                           446009779851037462       9851037462                               O0212002005076016                                NPRGOPAL RAJ SHERCHAN                                20250317P                   120                 AVDD      A9999     000000000000000                    10                                                                                                     gopal.sherchan@yahoo.com                
475183    ADB4769247714       20250307IAD05548314                                        F2 RANA                                    RUPA                                                                            19951126NEPAL                                   1 411028/102557       1 524     ADSATYAWATIRURALMUNICIPALITY03                                                                                            446009779867329114                                                N0425405548314015                                NPRRUPA RANA                                         20250307P                   254                 AVDD      A9999     000000000000000                    10                                                                                                                                             
475183    ADB3572488816       20250307IAD05548315                                        F2 PURI                                    BASANTA                                                                         20040328NEPAL                                   1 41-01-78-00133      2 524     ADMADANE03SIRSENIKORALPATA                                                                                                446009779849923898                                                N0425405548315011                                NPRBASANTA PURI                                      20250307P                   254                 AVDD      A9999     000000000000000                    10                                                                                                                                             
475183    ADB2088434437       20250307IAD05541313                                        F2 BHUSAL                                  SUSHILA                                                                         19810429NEPAL                                   1 413078/237          2 524     ADMADANERURALMUNICIPALITY2                                                                                                446009779847431394                                                N0425405541313013                                NPRSUSHILA BHUSAL                                    20250307P                   254                 AVDD      A9999     000000000000000                    10                                                                                                                                             
475183    ADB2276326963       20250310IAD05543924                                        F2 BHUSAL                                  BINDU                                                                           19980304NEPAL                                   1 41-01-80-00225      1 524     ADMADANE02BAJKATERIPANCHAMPOKHARI                                                                                         446009779866189350                                                N0425405543924011                                NPRBINDU BHUSAL                                      20250310P                   254                 AVDD      A9999     000000000000000                    10                                                                                                                                             
475183    ADB1924526617       20250310IAD05538529                                        F2 DONG                                    SUSHILA                                                                         19991208NEPAL                                   1 21-21-75-00010      2 524     ADMADANERURALMUNICIPALITY6                                                                                                446009779766285789                                                N0425405538529013                                NPRSUSHILA DONG                                      20250310P                   254                 AVDD      A9999     000000000000000                    10                                                                                                                                             
475183    ADB1908599117       20250310IAD05544172                                        F2 G.C.                                    ASMITA                                                                          20040912NEPAL                                   1 41-01-80-05864      1 524     ADMADANE06PURKOTDAHA                                                                                                      446009779768852772                                                N0425405544172011                                NPRASMITA G.C.                                       20250310P                   254                 AVDD      A9999     000000000000000                    10                                                                                                                                             
475183    ADB2677431110       20250310IAD05539758                                        M1 OLI                                     MOHAN                                                                           20010612NEPAL                                   1 41-01-76-01425      1 524     ADMADANE07TIMURKHARKA                                                                                                     446009779866522951                                                N0425405539758016                                NPRMOHAN OLI                                         20250310P                   254                 AVDD      A9999     000000000000000                    10                                                                                                                                             
475183    ADB1424283976       20250310IAD05525025                                        F2 MAGAR                                   MANISHA                                 JHAKARI                                 20040423NEPAL                                   1 41-01-79-02750      1 524     ADMADANE02                                                                                                                446009779866183495                                                N0425405525025016                                NPRMANISHA J MAGAR                                   20250310P                   254                 AVDD      A9999     000000000000000                    10                                                                                                                                             
475183    ADB9037697188       20250310IAD05539645                                        M1 KHATRI                                  DHAN                                    BAHADUR                                 19650525NEPAL                                   1 364                 2 524     ADMADANERURALMUNICIPALITY7                                                                                                446009779867158357                                                N0425405539645017                                NPRDHAN BAHADUR KHATRI                               20250310P                   254                 AVDD      A9999     000000000000000                    10                                                                                                                                             
475183    ADB1105468371       20250310IAD05539626                                        M1 MARASINI                                YAM                                     PRASAD                                  19780523NEPAL                                   1 9663                2 524     ADRESUNGAMUNICIPALITY09                                                                                                   446009779844795528                                                N0425405539626012                                NPRYAM PRASAD MARASINI                               20250310P                   254                 AVDD      A9999     000000000000000                    10                                                                                                                                             
475183    ADB3671709033       20250310IAD01886769                                        F2 BHANADARI                               RESHMA                                  KUMARI                                  19810411NEPAL                                   1 39156               2 524     ADMADANE07BHANBHANEHARABAT                                                                                                446009779766272388                                                N0425401886769014                                NPRRESHMA K BHANADARI                                20250310P                   254                 AVDD      A9999     000000000000000                    10                                                                                                                                             
475183    ADB8708408179       20250310IAD05539669                                        F2 K.C                                     PADMA                                                                           19831231NEPAL                                   1 40103               2 524     ADPYUTHANJHIMRUK02BADIKOT                                                                                                 446009779847268592                                                N0425405539669013                                NPRPADMA K.C                                         20250310P                   254                 AVDD      A9999     000000000000000                    10                                                                                                                                             
475183    ADB0546087076       20250310IAD05539542                                        M1 PANTHI                                  BHOJ                                    RAJ                                     19660929NEPAL                                   1 1761                2 524     ADMADANE07BHIRKATERI                                                                                                      446009779840784510                                                N0425405539542013                                NPRBHOJ RAJ PANTHI                                   20250310P                   254                 AVDD      A9999     000000000000000                    10                                                                                                                                             
475183    ADB8840091985       20250310IAD05539654                                        M1 K.C.                                    SAMSER                                  BAHADUR                                 19810918NEPAL                                   1 3766                2 524     ADMALIKARURALMUNICIPALITY08                                                                                               446009779867147754                                                N0425405539654016                                NPRSAMSER BAHADUR K.C.                               20250310P                   254                 AVDD      A9999     000000000000000                    10                                                                                                                                             
475183    ADB1273109382       20250310IAD05539677                                        M1 PANTHI                                  DHANISHWAR                                                                      19860527NEPAL                                   1 38867               2 524     ADDHURKOT06DADRA                                                                                                          446009779867213905                                                N0425405539677016                                NPRDHANISHWAR PANTHI                                 20250310P                   254                 AVDD      A9999     000000000000000                    10                                                                                                                                             
475183    ADB9150111659       20250310IAD05539653                                        M1 ADHIKARI                                SHYAM                                   BAHADUR                                 19990826NEPAL                                   1 1498                2 524     ADMADANERURALMUNICIPALITY7                                                                                                446009779847480943                                                N0425405539653011                                NPRSHYAM B ADHIKARI                                  20250310P                   254                 AVDD      A9999     000000000000000                    10                                                                                                                                             
475183    ADB6599405682       20250310IAD05539656                                        F2 ARYAL                                   SARASWATI                                                                       19890808NEPAL                                   1 413059/06           2 524     ADMADANERURALMUNICIPALITY7                                                                                                446009779843065419                                                N0425405539656019                                NPRSARASWATI ARYAL                                   20250310P                   254                 AVDD      A9999     000000000000000                    10                                                                                                                                             
475183    ADB3851265385       20250310IAD05386178                                        M1 PANDEY                                  ARJUN                                                                           19971228NEPAL                                   1 41-01-73-02993      2 524     ADMADANE07                                                                                                                446009779867341121                                                N0425405386178015                                NPRARJUN PANDEY                                      20250310P                   254                 AVDD      A9999     000000000000000                    10                                                                                                                                             
475183    ADB4341413673       20250309IAD01011096                                        M1 PADHYA                                  ARJUN                                   PD.                                     19700101NEPAL                                                           524     AD                                                                                                                        446009779841661234                                                O0209901011096012                                NPRARJUN PD. PADHYA                                  20250309P                   099                 AVDD      A9999     000000000000000                    10                                                                                                                                             
475183    ADB1066925610       20250309IAD01776445                                        M1 KHAWAS                                  PRABIN                                  BHAGAT                                  19991222NEPAL                                   1 05-01-75-03236        524     ADBUDHIGANGA07                                                                                                            446009779819368724                                                O0602001776445018                                NPRPRABIN B KHAWAS                                   20250309P                   020                 AVDDNGP   A9999     000000000000000                    10                                                                                                                                             
475183    ADB4348886292       20250309IAD00263953                                        M1 GAUTAM                                  KAMAL                                   RAJ                                     19691229NEPAL                                   1 10398               2 524     ADKATHMANDUMETROPOLITIANCITY06                                                                                            446009779851120625                                                N0209900263953019                                NPRKAMAL RAJ GAUTAM                                  20250309P                   099                 AVDD      A9999     000000000000000                    10                                                                                                                                             
475183    ADB1202319513       20250309IAD00136273                                        F2 NAGARKOTI                               SUSHMA                                                                          19951128NEPAL                                   1 04-01-61-69-03027   1 524     ADSANIARJUN7                                                                                                              446009779863023029                                                N0209900136273017                                NPRSUSHMA NAGARKOTI                                  20250309P                   099                 AVDD      A9999     000000000000000                    10                                                                                                                                             
475183    ADB6812082541       20250309IAD05411121                                        F2 TRIPATHI                                ANITA                                                                           19850721NEPAL                                   1 102269              1 524     ADPANCHKHAL13                                                                                                             446009779841052025                                                N0209905411121011                                NPRANITA TRIPATHI                                    20250309P                   099                 AVDD      A9999     000000000000000                    10                                                                                                     anitatripathi24@gmail.com               
475183    ADB5259837208       20250310IAD03058415                                        M1 RAUNIYAR                                ABHISHEK                                                                        19870706NEPAL                                   1 34231               1 524     ADKATHMANDUMETROPOLITANCITY                                                                                               446009779765921364                                                N0209903058415011                                NPRABHISHEK RAUNIYAR                                 20250310P                   099                 AVDD      A9999     000000000000000                    10                                                                                                                                             
475183    ADB4608204939       20250312IAD01857918                                        M1 CHAUDHARI                               LACHHU                                  KUMAR                                   19881114NEPAL                                   1 523031380           2 524     ADURAHARI01                                                                                                               446009779806261983                                                N0209901857918015                                NPRLACHHU K CHAUDHARI                                20250312P                   099                 AVDD      A9999     000000000000000                    10                                                                                                                                             
475183    ADB6042808550       20250314IAD01738263                                        F  PANDAY                                  AATMA                                   DEVI                                    19901201NEPAL                                   1 641045/88963          524     ADGURBAKOT8                                                                                                               446009779868066502       9868066502                               O0209901738263019                                NPRAATMA DEVI PANDAY                                 20250314P                   099                 AVDD      A9999     000000000000000                    10                                                                                                                                             
475183    ADB4684193886       20250317IAD05574601                                        M1 INVESTMENT                              P.K                                     MULTI                                   20011114NEPAL                                   1 31-01-74-13683      1 524     ADKATHMANDU                                                                                                               446009779860217402                                                N0209905574601010                                NPRP.K M INVESTMENT                                  20250317P                   099                 AVDD      A9999     000000000000000                    10                                                                                                     sbhardware10@gmail.com                  
475183    ADB2001325629       20250317IAD05499816                                        F2 RAJBHANDARI                             SHLESHA                                                                         20050525NEPAL                                   1 11-01-79-01691      1 524     ADSOLUDUDHAKUNDA06                                                                                                        446009779805959981                                                N0209905499816014                                NPRSHLESHA RAJBHANDARI                               20250317P                   099                 AVDD      A9999     000000000000000                    10                                                                                                     rajbhandarisally@gmail.com              
475183    ADB0100884249       20250318IAD05563419                                        F2 KHADKA                                  BHUWANI                                                                         20051010NEPAL                                   1 31018102692         1 524     ADMAKWANPUR03                                                                                                             446009779801795319                                                N0209905563419016                                NPRBHUWANI KHADKA                                    20250318P                   099                 AVDD      A9999     000000000000000                    10                                                                                                     khadkabhawani81@gmail.com               
475183    ADB7559478559       20250316IAD05573743                                        F2 SARU                                    HUM                                     KUMARI                                  20010924NEPAL                                   1 77-01-78-06261      2 524     ADDEVCHULIMUNICIPALITY16                                                                                                  446009779842352547                                                N0415105573743018                                NPRHUM KUMARI SARU                                   20250316P                   151                 AVDD      A9999     000000000000000                    10                                                                                                                                             
475183    ADB7083050047       20250316IAD05549061                                        F2 REGMI                                   SANGITA                                 ARYAL                                   19870126NEPAL                                   1 423062/156          2 524     ADGAIDAKOTMUNICIPALITY08                                                                                                  446009779845596333                                                N0415105549061011                                NPRSANGITA ARYAL REGMI                               20250316P                   151                 AVDD      A9999     000000000000000                    10                                                                                                                                             
475183    ADB0704434792       20250317IAD01286279                                        M1 BARAL                                   PREM                                                                            19700101NEPAL                                                           524     ADDEVCHULI                                BISHALTAR                               BISHALTAR                               446009779857087707                                                O0415101286279011                                NPRPREM BARAL                                        20250317P                   151                 AVDD      A9999     000000000000000                    10                                                                                                                                             
