475183    ADB1987709294       20250310IAD05574035                                        F2 CHAUDHARY                               ANKITA                                                                          20050416NEPAL                                   1 52-06-79-01232      1 524     ADRAPTI2LALMATIYA                                                                                                         446009779701994403                                                N0929105574035016                                NPRANKITA CHAUDHARY                                  20250310P                   291                 AVDD      A9999     000000000000000                    10                                                                                                                                             
475183    ADB8901838878       20250312IAD05308998                                        F2 ADHIKARI                                ANITA                                                                           20030421NEPAL                                   1 43-01-76-07959      1 524     ADBHANU13                                                                                                                 446009779846954270                                                N0508505308998010                                NPRANITA ADHIKARI                                    20250312P                   085                 AVDD      A9999     000000000000000                    10                                                                                                     anitaadhikari295@gmail.com              
475183    ADB2053646051       20250313IAD05576179                                        M1 CHAUDHARY                               RAMSHWORUP                                                                      19870527NEPAL                                   1 522007/49           2 524     ADRAPTI3NAYABASTI                                                                                                         446009779842459012                                                N0929105576179015                                NPRRAMSHWORUP CHAUDHARY                              20250313P                   291                 AVDD      A9999     000000000000000                    10                                                                                                                                             
475183    ADB7156294764       20250313IAD05505242                                        F2 KHANAL                                  SHAMKALA                                                                        19830813NEPAL                                   1 816/1677            2 524     ADRAPTI3MASURAYA                                                                                                          446009779847959388                                                N0929105505242018                                NPRSHAMKALA KHANAL                                   20250313P                   291                 AVDD      A9999     000000000000000                    10                                                                                                                                             
475183    ADB6411285305       20250313IAD05575104                                        F2 SARKI                                   MANISHA                                                                         20030102NEPAL                                   1 520680/02246        2 524     ADRAPTI3MASURAYA                                                                                                          446009779829505927                                                N0929105575104011                                NPRMANISHA SARKI                                     20250313P                   291                 AVDD      A9999     000000000000000                    10                                                                                                                                             
475183    ADB7741273181       20250313IAD05551890                                        M1 OLI                                     MAIT                                    BAHADUR                                 19800910NEPAL                                   1 41095               2 524     ADRAPTI4MAURIGHAT                                                                                                         446009779709995770                                                N0929105551890016                                NPRMAIT BAHADUR OLI                                  20250313P                   291                 AVDD      A9999     000000000000000                    10                                                                                                                                             
475183    ADB0304184342       20250313IAD05564625                                        M1 BHUSAL                                  CHITRU                                  PRASAD                                  19750119NEPAL                                   1 9667                2 524     ADRAPTI1                                                                                                                  446009779809541587                                                N0929105564625011                                NPRCHITRU P BHUSAL                                   20250313P                   291                 AVDD      A9999     000000000000000                    10                                                                                                                                             
475183    ADB9155987139       20250319IAD05579392                                        F1 MAGAR                                   SEMSARA                                 BUDHA                                   19960925NEPAL                                   1 52-06-75-03238      2 524     ADSITGANGA8LAHAPE                                                                                                         446009779866770236                                                N0929105579392011                                NPRSEMSARA BUDHA MAGAR                               20250319P                   291                 AVDD      A9999     000000000000000                    10                                                                                                                                             
475183    ADB4019898800       20250320IAD01722335                                        M1 RAI                                     BINOD                                                                           19840526NEPAL                                   1 67239                 524     ADOKHLE6PHALATE                                                                                                           446009779841526011                                                O0212801722335018                                NPRBINOD RAI                                         20250320P                   128                 AVDD      A9999     000000000000000                    10                                                                                                                                             
475183    ADB8534323686       20250318IAD01518387                                        M1 SUNAR                                   TIKARAM                                                                         19940909NEPAL                                   1 44-01-71-03284      2 524     ADARUPOKHARI08                                                                                                            446009779843607062                                                N0317601518387013                                NPRTIKARAM SUNAR                                     20250318P                   176                 AVDD      A9999     000000000000000                    10                                                                                                                                             
475183    ADB5189362054       20250305IAD05571739                                        F2 SHAH                                    MIRA                                                                            20000716NEPAL                                   1 67-01-74-05294      2 524     ADCHURE06                                                                                                                 446009779762845721                                                N0823405571739017                                NPRMIRA SHAH                                         20250305P                   234                 AVDD      A9999     000000000000000                    10                                                                                                                                             
475183    ADB4158716187       20250306IAD05572204                                        M1 KHADKA                                  SURESH                                                                          20040115NEPAL                                   1 68-01-79-02290      1 524     ADAADARSA01                                                                                                               446009779869155442                                                N0823405572204011                                NPRSURESH KHADKA                                     20250306P                   234                 AVDD      A9999     000000000000000                    10                                                                                                                                             
475183    ADB7362408200       20250310IAD05573757                                        F2 RAWAL                                   ASHMITA                                                                         20061229NEPAL                                   1 67-01-81-04405      1 524     ADGODAWARI10                                                                                                              446009779763947260                                                N0823405573757012                                NPRASHMITA RAWAL                                     20250310P                   234                 AVDD      A9999     000000000000000                    10                                                                                                                                             
475183    ADB6740651754       20250310IAD05573583                                        F2 BIST                                    PUSPA                                                                           20050713NEPAL                                   1 75-01-81-03365      1 524     ADKRISHNAPUR07                                                                                                            446009779763947257                                                N0823405573583014                                NPRPUSPA BIST                                        20250310P                   234                 AVDD      A9999     000000000000000                    10                                                                                                                                             
475183    ADB1419085765       20250310IAD05573205                                        M1 BHATTA                                  MAHESH                                                                          19940725NEPAL                                   1 75-01-69-04853      2 524     ADKRISHNAPUR08                                                                                                            446009779864640435                                                N0823405573205011                                NPRMAHESH BHATTA                                     20250310P                   234                 AVDD      A9999     000000000000000                    10                                                                                                                                             
475183    ADB5605675220       20250310IAD05573129                                        M1 CHAUDHARY                               SANTOSH                                                                         20030301NEPAL                                   1 67-01-77-06678      2 524     ADGODAWARI05                                                                                                              446009779742875125                                                N0823405573129011                                NPRSANTOSH CHAUDHARY                                 20250310P                   234                 AVDD      A9999     000000000000000                    10                                                                                                                                             
475183    ADB2332605442       20250317IAD05050225                                        M1 ROKAYA                                  PRAKASH                                 BAHADUR                                 19880523NEPAL                                   1 175907              2 524     ADKRISHNAPUR08ROKAYATOL                                                                                                   446009779849369543                                                O0823405050225017                                NPRPRAKASH B ROKAYA                                  20250317P                   234                 AVDD      A9999     000000000000000                    10                                                                                                                                             
475183    ADB7504335191       20250317IAD01690007                                        M1 DHAMI                                   PAN                                     SINGH                                   19800725NEPAL                                   1 17342                 524     ADMARMA6                                                                                                                  446009779863097349                                                O0823401690007010                                NPRPAN SINGH DHAMI                                   20250317P                   234                 AVDD      A9999     000000000000000                    10                                                                                                                                             
475183    ADB8968775083       20250319IAD05579607                                        F2 BOHARA                                  CHANDRA                                 KUMARI                                  20051105NEPAL                                   1 68-01-80-05655      2 524     ADBADIKEDAR01                                                                                                             446009779764427991                                                N0823405579607012                                NPRCHANDRA K BOHARA                                  20250319P                   234                 AVDD      A9999     000000000000000                    10                                                                                                                                             
475183    ADB4459944831       20250319IAD05579637                                        F2 KSHEDAL                                 SITA                                    KUMARI                                  20070101NEPAL                                   1 68-01-81-05952      1 524     ADBADIKEDAR01                                                                                                             446009779769854850                                                N0823405579637019                                NPRSITA KUMARI KSHEDAL                               20250319P                   234                 AVDD      A9999     000000000000000                    10                                                                                                                                             
475183    ADB5830209827       20250319IAD05579565                                        F2 BOHARA                                  BHAGRATI                                                                        20070831NEPAL                                   1 2064051405284       1 524     ADJORAYAL06                                                                                                               446009779746448692                                                N0823405579565018                                NPRBHAGRATI BOHARA                                   20250319P                   234                 AVDD      A9999     000000000000000                    10                                                                                                                                             
475183    ADB5403544488       20250319IAD05579428                                        F2 MANNI                                   SARITA                                  KUMARI                                  20050712NEPAL                                   1 68-01-80-02052      1 524     ADBADIKEDARGAUPALIKA04                                                                                                    446009779769849266                                                N0823405579428010                                NPRSARITA KUMARI MANNI                               20250319P                   234                 AVDD      A9999     000000000000000                    10                                                                                                                                             
475183    ADB7261784539       20250319IAD05579458                                        F2 BOHARA                                  GANGA                                   KUMARI                                  20061017NEPAL                                   1 68-01-81-02345      1 524     ADJORAYAL06                                                                                                               446009779764427968                                                N0823405579458017                                NPRGANGA KUMARI BOHARA                               20250319P                   234                 AVDD      A9999     000000000000000                    10                                                                                                                                             
475183    ADB2611338793       20250320IAD05343207                                        F2 MALLA                                   PARWATI                                                                         20030415NEPAL                                   1 67-01-78-03214      1 524     ADGODAWARI07SHANTITOLE                                                                                                    446009779812634501                                                N0823405343207013                                NPRPARWATI MALLA                                     20250320P                   234                 AVDD      A9999     000000000000000                    10                                                                                                                                             
475183    ADB9351409138       20250320IAD01626286                                        M1 BOHARA                                  NAR                                     BAHADUR                                 19800604NEPAL                                   1 9524                  524     ADBUNGAL3                                                                                                                 446009779865644999                                                O0823401626286011                                NPRNAR BAHADUR BOHARA                                20250320P                   234                 AVDD      A9999     000000000000000                    10                                                                                                                                             
475183    ADB4502355488       20250319IAD05579266                                        F2 SUBEDI                                  SANDHYA                                                                         20020414NEPAL                                   1 46-01-76-00089      1 524     ADPOKHARA02KASKI                                                                                                          446009779819152497                                                N0316505579266011                                NPRSANDHYA SUBEDI                                    20250319P                   165                 AVDD      A9999     000000000000000                    10                                                                                                                                             
475183    ADB6881315746       20250320IAD05580773                                        F2 ADHIKARI                                DEVIMAYA                                                                        19790831NEPAL                                   1 83303               2 524     ADNIRMALPOKHARI06KASKI                                                                                                    446009779846069546                                                N0316505580773016                                NPRDEVIMAYA ADHIKARI                                 20250320P                   165                 AVDD      A9999     000000000000000                    10                                                                                                                                             
475183    ADB8385024663       20250310IAD01454616                                        M1 TATHA                                   SAUGAT                                  KRISHI                                  19780518NEPAL                                   1 205394              2 524     ADJAIMINI07JAIDI                          JAIMINI07JAIDI                          JAIMINI07JAIDI                          446009779844737444       9844737444                               N0318201454616019                                NPRSAUGAT KRISHI TATHA                               20250310P                   182                 AVDD      A9999     000000000000000                    10                                                                                                                                             
475183    ADB6970415880       20250310IAD05379288                                        F2 PARIYAR                                 PUJA                                    NEPALI                                  20011227NEPAL                                   1 50017602011         2 524     ADKUNAPA01PANGTATARKOT                    KUNAPA01PANGTATARKOT                    KUNAPA01PANGTATARKOT                    446009779805210333       9805210333                               N0318205379288014                                NPRPUJA NEPALI PARIYAR                               20250310P                   182                 AVDD      A9999     000000000000000                    10                                                                                                                                             
475183    ADB4191782785       20250317IAD05576961                                        M1 JETHARA                                 KISHOR                                                                          20061027NEPAL                                   1 71-01-81-02989      1 524     ADTALKOTRURALMUNICIPALITY06                                                                                               446009779767441321                                                N0823105576961016                                NPRKISHOR JETHARA                                    20250317P                   231                 AVDD      A9999     000000000000000                    10                                                                                                                                             
475183    ADB3173551808       20250319IAD05579510                                        F2 SINGH                                   SAPANA                                  KUMARI                                  20041119NEPAL                                   1 71-01-78-03603      1 524     ADJAYAPRITHIVIMUNICIPALITY01                                                                                              446009779761660442                                                N0823105579510015                                NPRSAPANA KUMARI SINGH                               20250319P                   231                 AVDD      A9999     000000000000000                    10                                                                                                                                             
475183    ADB7079601438       20250311IAD05571581                                        M1 RAWAL                                   MAHADEV                                                                         20040117NEPAL                                   1 70-01-78-00828      1 524     ADBADIMALIKA03                                                                                                            446009779768973940       9768913940                               N0823005571581016                                NPRMAHADEV RAWAL                                     20250311P                   230                 AVDD      A9999     000000000000000                    10                                                                                                                                             
475183    ADB7923446928       20250320IAD01691020                                        F  JOSHI                                   SURMA                                                                           19970627NEPAL                                   1 71-01-71-1182         524     ADDHANGADHI07                                                                                                             446009779863529418                                                O0821901691020016                                NPRSURMA JOSHI                                       20250320P                   219                 AVDD      A9999     000000000000000                    10                                                                                                                                             
475183    ADB8248223359       20250320IAD05156331                                        M1 DAHAL                                   SABIN                                                                           20060821NEPAL                                   6 2063050500848       1 524     ADBANEPA03KAVREPALANCHOK                                                                                                  446009779866003388                                                O0212605156331014                                NPRSABIN DAHAL                                       20250320P                   126                 AVDD      A9999     000000000000000                    10                                                                                                                                             
475183    ADB7576919342       20250320IAD01065359                                        M1 GHIMIRE                                 SALIK                                   RAM                                     19800330NEPAL                                   1 102752              2 524     ADTUKUCHA07                                                                                                               446009779841100400                                                N0212601065359026                                NPRSALIK RAM GHIMIRE                                 20250320P                   126                 AVDD      A9999     000000000000000                    10                                                                                                     ghimiresalimram@gmail.com               
475183    ADB2807084787       20250309IAD05351708                                        F2 ADHIKARI                                SUSHMA                                  PARAJULI                                20000704NEPAL                                   1 36-06-74-06154      2 524     ADBARDAGHAT13                                                                                                             446009779844233409                                                O0415305351708019                                NPRSUSHMA P ADHIKARI                                 20250309P                   153                 AVDD      A9999     000000000000000                    10                                                                                                                                             
475183    ADB3906827716       20250309IAD01766901                                        F2 BHATTARAI                               KHUMADEVI                               PANDEY                                  19940910NEPAL                                   1 411029-350          2 524     ADHARMICHAUR07GULMI                                                                                                       446009779867856793                                                N0415301766901013                                NPRKHUMADEVI P BHATTRAI                              20250309P                   153                 AVDD      A9999     000000000000000                    10                                                                                                                                             
475183    ADB4029958707       20250310IAD05574460                                        F2 THAPA                                   NIBHA                                                                           20060901NEPAL                                   1 36-01-81-04095      1 524     ADDIVYANAGAR                                                                                                              446009779700680697                                                N0415305574460019                                NPRNIBHA THAPA                                       20250310P                   153                 AVDD      A9999     000000000000000                    10                                                                                                     nibhamagar31@gmail.com                  
475183    ADB9814001459       20250311IAD05574783                                        F2 GURUNG                                  BIR                                     KUMARI                                  19720530NEPAL                                   1 792                 2 524     ADSIDDHANAGAR                                                                                                             446009779800726445                                                N0415305574783012                                NPRBIR KUMARI GURUNG                                 20250311P                   153                 AVDD      A9999     000000000000000                    10                                                                                                                                             
475183    ADB3661641535       20250316IAD01088948                                        F  DARJI                                   MAYA                                    DEVI                                    19700703NEPAL                                   1 09/1183               524     ADJAHADA9                                                                                                                 446009779702520476                                                O0415301088948012                                NPRMAYA DEVI DARJI                                   20250316P                   153                 AVDD      A9999     000000000000000                    10                                                                                                                                             
475183    ADB6091987610       20250317IAD01757439                                        F  PURBACHHANE                             MANMAYA                                                                         19790722NEPAL                                   1 04926756              524     ADBARDIBAS04                                                                                                              446009779807811777                                                O1006301757439016                                NPRMANMAYA PURBACHHANE                               20250317P                   063                 AVDD      A9999     000000000000000                    10                                                                                                                                             
475183    ADB4453656900       20250317IAD02037280                                        F2 YADAV                                   PRIYA                                                                           20081111NEPAL                                   1 33-01-81-10747      1 524     AD02MAHAGADHIMAIMUNICIPALITY                                                                                              446009779700779380                                                N0507902037280017                                NPRPRIYA YADAV                                       20250317P                   079                 AVDD      A9999     000000000000000                    10                                                                                                     py8962555@gmail.com                     
475183    ADB8275437408       20250305IAD05565861                                        M1 PALUNGWA                                SAKSHAM                                                                         20000928NEPAL                                   1 01-01-74-01331      2 524     ADPHUNGLING03                                                                                                             446009779741813603                                                N0211205565861015                                NPRSAKSHAM PALUNGWA                                  20250305P                   112                 AVDD      A9999     000000000000000                    10                                                                                                     sakashampalungwalimbu@gmail.com         
475183    ADB1045714823       20250305IAD05413696                                        M1 TAMANG                                  BISHNU                                  BAHADUR                                 19900728NEPAL                                   1 243031/250          2 524     ADHARIWAN02                                                                                                               446009779767846305                                                N1027005413696011                                NPRBISHNU B TAMANG                                   20250305P                   270                 AVDD      A9999     000000000000000                    10                                                                                                                                             
475183    ADB2093528284       20250309IAD05570879                                        M1 SHIVABHAKTI                             SUDIP                                                                           19780720NEPAL                                   1 10454               2 524     ADKATHMANDU32                                                                                                             446009779841200114                                                N0211205570879011                                NPRSUDIP SHIVABHAKTI                                 20250309P                   112                 AVDD      A9999     000000000000000                    10                                                                                                     sudipthapa2021@gmail.com                
475183    ADB4913451530       20250314IAD00117916                                        M1 TAMANG                                  BIJAY                                                                           19801001NEPAL                                   1 1851                2 524     ADKATHMANDU32                                                                                                             446009779841596615                                                N0211200117916011                                NPRBIJAY TAMANG                                      20250314P                   112                 AVDD      A9999     000000000000000                    10                                                                                                                                             
475183    ADB1486540519       20250314IAD01526064                                        M1 SUNUWAR                                 ANMOL                                                                           19700101NEPAL                                                           524     ADDHARAN                                  DHARAN                                  DHARAN                                  446009779700490573                                                O0602701526064010                                NPRANMOL SUNUWAR                                     20250314P                   027                 AVDD      A9999     000000000000000                    10                                                                                                                                             
475183    ADB7445577117       20250317IAD05577747                                        F2 GYAWALI                                 RADHA                                                                           19830124NEPAL                                   1 41-01-7005373       2 524     ADRURU04                                                                                                                  446009779860694823                                                N0211205577747013                                NPRRADHA GYAWALI                                     20250317P                   112                 AVDD      A9999     000000000000000                    10                                                                                                     dee07nesh@gmail.com                     
475183    ADB1278000659       20250318IAD01199602                                        M1 KHADGI                                  SURAJ                                                                           19700101NEPAL                                                           524     ADOLD                                     KATHMANDU                               KATHMANDU                               446009779841263805                                                O0211201199602014                                NPRSURAJ KHADGI                                      20250318P                   112                 AVDD      A9999     000000000000000                    10                                                                                                                                             
475183    ADB1431348309       20250319IAD05548955                                        F2 RAI                                     GYANU                                                                           19910129NEPAL                                   1 161011/65           2 524     ADFATTEPUR03                                                                                                              446009779861807170                                                N1104805548955013                                NPRGYANU RAI                                         20250319P                   048                 AVDD      A9999     000000000000000                    10                                                                                                                                             
475183    ADB7379340091       20250316IAD05293308                                        M1 MAGAR                                   BIJAYA                                  SHERMAJA                                19860509NEPAL                                   1 3100                2 524     ADGHATAN06                                                                                                                446009779867846590                                                N0318605293308010                                NPRBIJAYA S MAGAR                                    20250316P                   186                 AVDD      A9999     000000000000000                    10                                                                                                                                             
475183    ADB0459690550       20250321IAD00754492                                        M1 SHRESTHA                                RAJ                                     KUMAR                                   19771110NEPAL                                   1 18346                 524     ADBESISAHAR11LAMJUNG                                                                                                      446009779846127951                                                O0317800754492017                                NPRRAJ KUMAR SHRESTHA                                20250321P                   178                 AVDD      A9999     000000000000000                    10                                                                                                                                             
475183    ADB0146213680       20250311IAD03052588                                        F2 RAJBANSHI                               ANITA                                                                           19930109NEPAL                                   1 04-01-71-03877      2 524     ADBHADRAPURMUNICIPALITY                                                                                                   446009779815995830                                                N0600503052588011                                NPRANITA RAJBANSHI                                   20250311P                   005                 AVDD      A9999     000000000000000                    10                                                                                                                                             
475183    ADB6496252669       20250311IAD05574552                                        M1 BUDHATHOKI                              GOPAL                                                                           19810907NEPAL                                   1 18605704            2 524     ADBHADRAPUR09                                                                                                             446009779867638596                                                N0600505574552018                                NPRGOPAL BUDHATHOKI                                  20250311P                   005                 AVDD      A9999     000000000000000                    10                                                                                                                                             
475183    ADB0790862729       20250311IAD01234765                                        M1 RAJBANSHI                               BHUWEN                                                                          19890722NEPAL                                   1 043015181           2 524     ADBHADRAPURWN05JHAPA                                                                                                      446009779867638596                                                N0600501234765011                                NPRBHUWEN RAJBANSHI                                  20250311P                   005                 AVDD      A9999     000000000000000                    10                                                                                                                                             
475183    ADB1615976636       20250312IAD05575511                                        M1 BHUJEL                                  RAMESH                                                                          19720217NEPAL                                   1 99014072            2 524     ADBHADRAPUR01                                                                                                             446009779808013066                                                N0600505575511013                                NPRRAMESH BHUJEL                                     20250312P                   005                 AVDD      A9999     000000000000000                    10                                                                                                                                             
475183    ADB8557050369       20250312IAD01475614                                        M1 NIRAULA                                 GUNA                                    RAJ                                     19700101NEPAL                                                           524     ADHALDIBARI                               JHAPA                                   JHAPA                                   446009779842682728                                                O0600501475614014                                NPRGUNA RAJ NIRAULA                                  20250312P                   005                 AVDD      A9999     000000000000000                    10                                                                                                                                             
475183    ADB9968851304       20250313IAD00689242                                        M1 LAMA                                    PREM                                    CHHIRING                                19641226NEPAL                                   1 57813073            2 524     ADBHADRAPURWN08                                                                                                           446009779816949622                                                N0600500689242010                                NPRPREM CHHIRING LAMA                                20250313P                   005                 AVDD      A9999     000000000000000                    10                                                                                                                                             
475183    ADB1441215290       20250317IAD05576984                                        F2 GIRI                                    TEK                                     MAYA                                    19630514NEPAL                                   1 354121888           2 524     ADHALDIBARI03                                                                                                             446009779804909202                                                N0600505576984012                                NPRTEK MAYA GIRI                                     20250317P                   005                 AVDD      A9999     000000000000000                    10                                                                                                                                             
475183    ADB2031605535       20250317IAD00689092                                        M1 SIWAKOTI                                GANGA                                   PRASAD                                  19621111NEPAL                                   1 1860/8290           2 524     ADCHANDRAGADI3                                                                                                            446009779828376808                                                N0600500689092019                                NPRGANGA PD SIWAKOTI                                 20250317P                   005                 AVDD      A9999     000000000000000                    10                                                                                                                                             
475183    ADB7118836382       20250317IAD05576932                                        M1 KHATIWADA                               SHIVA                                   PRASAD                                  19660730NEPAL                                   1 0782107             2 524     ADKACHANKAWAL06                                                                                                           446009779808535935                                                N0600505576932012                                NPRSHIVA P KHATIWADA                                 20250317P                   005                 AVDD      A9999     000000000000000                    10                                                                                                                                             
475183    ADB7757166266       20250317IAD05575229                                        M1 DHUNGANA                                GUNAHARI                                UPADHAYA                                19831018NEPAL                                   1 57804735            2 524     ADMAHESHPUR03                                                                                                             446009779817941925                                                N0600505575229016                                NPRGUNAHARI U DHUNGANA                               20250317P                   005                 AVDD      A9999     000000000000000                    10                                                                                                                                             
475183    ADB4192725266       20250317IAD05576709                                        M1 ADHIKARI                                TARA                                    NIDHI                                   19850514NEPAL                                   1 35045711            2 524     ADBHADRAPUR07                                                                                                             446009779817048090                                                N0600505576709011                                NPRTARA NIDHI ADHIKARI                               20250317P                   005                 AVDD      A9999     000000000000000                    10                                                                                                                                             
475183    ADB5825826935       20250313IAD05561325                                        M1 KATHARIYA                               MAHESH                                  KUMAR                                   19910926NEPAL                                   1 672032/23233        2 524     ADBHAJANINAPA07CHARRA                                                                                                     446009779812641377                                                N0822005561325018                                NPRMAHESH K KATHARIYA                                20250313P                   220                 AVDD      A9999     000000000000000                    10                                                                                                                                             
475183    ADB9992804595       20250309IAD01001586                                        M  GURUNG                                  SHANTA                                                                          19700101NEPAL                                                           524     ADBASERI                                  DHADING                                 DHADING                                 446009779864555305                                                O0508601001586016                                NPRSHANTA  GURUNG                                    20250309P                   086                 AVDD      A9999     000000000000000                    10                                                                                                                                             
475183    ADB7637206335       20250310IAD05564558                                        F2 THAPA                                   ROMA                                                                            20050105NEPAL                                   1 43-01-78-06323      1 524     ADBYAS14                                                                                                                  446009779809179683                                                N0508605564558014                                NPRROMA THAPA                                        20250310P                   086                 AVDD      A9999     000000000000000                    10                                                                                                     romamagar905@gmail.com                  
475183    ADB9369625772       20250310IAD05574027                                        F2 BARALI                                  ASHMITA                                                                         20060719NEPAL                                   1 35-01-81-01642      1 524     ADBHARATPUR13                                                                                                             446009779848942388                                                N0508605574027017                                NPRASHMITA BARALI                                    20250310P                   086                 AVDD      A9999     000000000000000                    10                                                                                                     baraliasmit116@gmail.com                
475183    ADB6271017556       20250310IAD05573540                                        F2 GURUNG                                  SOBITA                                  TAMANG                                  19971020NEPAL                                   1 35-01-74-12971      2 524     ADBHARATPUR06                                                                                                             446009779862498072                                                N0508605573540012                                NPRSOBITA T GURUNG                                   20250310P                   086                 AVDD      A9999     000000000000000                    10                                                                                                     tamangsobita62@gmail.com                
475183    ADB1291826061       20250311IAD01174704                                        M1 PAUDEL                                  DEEPTI                                                                          19700101NEPAL                                                           524     ADBHARATPUR                               CHITWAN                                 CHITWAN                                 446009779845275898                                                O0508601174704014                                NPRDEEPTI PAUDEL                                     20250311P                   086                 AVDD      A9999     000000000000000                    10                                                                                                                                             
475183    ADB4851711587       20250312IAD05574913                                        F2 BHATTARAI                               MANISHA                                                                         20000127NEPAL                                   1 35-01-74-10365      2 524     ADBHARATPUR11                                                                                                             446009779869746979                                                N0508605574913017                                NPRMANISHA BHATTARAI                                 20250312P                   086                 AVDD      A9999     000000000000000                    10                                                                                                     bhattaraimanisha253@gmail.com           
475183    ADB5202132490       20250312IAD01178151                                        M1 TAMANG                                  CHUNU                                   KUMARI                                  19700101NEPAL                                                           524     ADKHAIRAHANI                              CHITWAN                                 CHITWAN                                 446009779845634500                                                O0508601178151011                                NPRCHUNU KUMARI TAMANG                               20250312P                   086                 AVDD      A9999     000000000000000                    10                                                                                                                                             
475183    ADB0451580001       20250312IAD05565114                                        M1 YADAV                                   RAJESH                                  KUMAR                                   19991225NEPAL                                   1 18-02-80-00820      1 524     ADAURAHI2                                                                                                                 446009779812183238                                                N0508605565114012                                NPRRAJESH KUMAR YADAV                                20250312P                   086                 AVDD      A9999     000000000000000                    10                                                                                                     yadavraj8632@gmail.com                  
475183    ADB2148490654       20250318IAD01176940                                        M1 SUNUWAR                                 SARMITA                                                                         19700101NEPAL                                                           524     ADBHARATPUR                               CHITWAN                                 CHITWAN                                 446009779845177025                                                O0508601176940017                                NPRSARMITA SUNUWAR                                   20250318P                   086                 AVDD      A9999     000000000000000                    10                                                                                                                                             
475183    ADB9219804092       20250320IAD05579519                                        M1 ARYAL                                   ANISH                                   BABU                                    20041127NEPAL                                   1 44-01-80-02967      1 524     ADGORKHA08                                                                                                                446009779769387372                                                N0508605579519015                                NPRANISH BABU ARYAL                                  20250320P                   086                 AVDD      A9999     000000000000000                    10                                                                                                     anisharyal32@gmail.com                  
475183    ADB0047135242       20250320IAD05579723                                        F2 SHARMA                                  GRISHMA                                                                         19900123NEPAL                                   1 511041/187          3 524     ADFALEBASH04                                                                                                              446009779845198793                                                N0508605579723011                                NPRGRISHMA SHARMA                                    20250320P                   086                 AVDD      A9999     000000000000000                    10                                                                                                     sharmagrisma@gmail.com                  
475183    ADB9575737917       20250320IAD05579856                                        M1 THING                                   DEVRAJ                                                                          19990627NEPAL                                   1 35-01-75-05303      1 524     ADRAPTI01                                                                                                                 446009779862784068                                                N0508605579856011                                NPRDEVRAJ THING                                      20250320P                   086                 AVDD      A9999     000000000000000                    10                                                                                                     thingdevraj1152@gmail.com               
475183    ADB9515323498       20250320IAD01483949                                        M1 BISTA                                   SAJINA                                                                          19700101NEPAL                                     AD01483949            524     ADBHARATPUR                               CHITWAN                                 CHITWAN                                 446009779868192556                                                O0508601483949013                                NPRSAJINA BISTA                                      20250320P                   086                 AVDD      A9999     000000000000000                    10                                                                                                                                             
475183    ADB1726126427       20250320IAD01174626                                        M1 THAPA                                   PRAKASH                                                                         19700101NEPAL                                                           524     ADBHARATPUR                               CHITWAN                                 CHITWAN                                 446009779845582293                                                O0508601174626013                                NPRPRAKASH THAPA                                     20250320P                   086                 AVDD      A9999     000000000000000                    10                                                                                                                                             
475183    ADB9579664886       20250309IAD00932342                                        M1 GURUNG                                  DHIR                                    BAHADUR                                 19611130NEPAL                                   1 3247                2 524     ADBHORLETARWN9RANIPANI                                                                                                    446009779846550243                                                N0317900932342010                                NPRDHIR BAHADUR GURUNG                               20250309P                   179                 AVDD      A9999     000000000000000                    10                                                                                                                                             
475183    ADB2459963973       20250310IAD01604895                                        F  DURA                                    BINDRA                                                                          19941124NEPAL                                   1 45-01-72-03985        524     ADNETA1MADHYANEPAL6                       BHORELTAR 6                             BHORELTAR 6                             446009779843682366       9843682366                               O0317901604895017                                NPRBINDRA DURA                                       20250310P                   179                 AVDD      A9999     000000000000000                    10                                                                                                                                             
475183    ADB4113228000       20250311IAD01759087                                        F  DHAMALA                                 GAURI                                                                           19970813NEPAL                                   1 64-02-74-00012        524     ADCHAUKUNE7                                                                                                               446009779848117646                                                O0317901759087014                                NPRGAURI DHAMALA                                     20250311P                   179                 AVDD      A9999     000000000000000                    10                                                                                                                                             
475183    ADB0609974492       20250316IAD01807882                                        F  BASTOLA                                 SRIJANA                                                                         19941119NEPAL                                   1 1019/6798             524     ADPOKHARA19                                                                                                               446009779865154696                                                O0317901807882018                                NPRSRIJANA BASTOLA                                   20250316P                   179                 AVDD      A9999     000000000000000                    10                                                                                                                                             
475183    ADB6828540344       20250317IAD01592984                                        M1 THAPA                                   SUDIP                                                                           19880420NEPAL                                   1 58324               2 524     ADMADHYANEPAL1                                                                                                            446009779846712308                                                N0317901592984027                                NPRSUDIP THAPA                                       20250317P                   179                 AVDD      A9999     000000000000000                    10                                                                                                                                             
475183    ADB0247185701       20250319IAD01695053                                        F  GURUNG                                  HUM                                     MAYA                                    19720623NEPAL                                   1 813                   524     ADISHANESHWOR7MADHYANEPAL7                MADHYANEPAL 7                           MADHYANEPAL 7                           446009779843500620       9843500620                               O0317901695053013                                NPRHUM MAYA GURUNG                                   20250319P                   179                 AVDD      A9999     000000000000000                    10                                                                                                                                             
475183    ADB0836052143       20250319IAD05525964                                        M1 MAGAR                                   DIPENDRA                                PUN                                     19991022NEPAL                                   1 64-01974905667      1 524     ADSIMTA09MADHYANEPAL03MAGARGAUN                                                                                           446009779843268898                                                N0317905525964017                                NPRDIPENDRA PUN MAGAR                                20250319P                   179                 AVDD      A9999     000000000000000                    10                                                                                                                                             
475183    ADB1362345834       20250320IAD01273611                                        F  ADHIKARI                                LILA                                                                            19771107NEPAL                                   1 17226                 524     ADMADHYANEPAL6LAMJUNG                                                                                                     446009779846221232                                                O0317901273611013                                NPRLILA ADHIKARI                                     20250320P                   179                 AVDD      A9999     000000000000000                    10                                                                                                                                             
475183    ADB2725120882       20250320IAD01210545                                        F  GHAR                                    SUJATA                                  KHAJA                                   19870326NEPAL                                   1 2115                  524     ADMADHYANEPAL6LAMJUNG                                                                                                     446009779846339656                                                O0317901210545010                                NPRSUJATA KHAJA GHAR                                 20250320P                   179                 AVDD      A9999     000000000000000                    10                                                                                                                                             
475183    ADB5566333192       20250320IAD05010874                                        M1 CHHETRI                                 RAJESH                                  RANABHAT                                19820103NEPAL                                   1 39712               2 524     ADBHORLETAR                                                                                                               446009779827165232                                                N0317905010874015                                NPRRAJESH R CHHETRI                                  20250320P                   179                 AVDD      A9999     000000000000000                    10                                                                                                                                             
475183    ADB0046459584       20250311IAD05564005                                        M1 MAJAKOTI                                ARJUN                                                                           19961122NEPAL                                   1 45-01-71-04909      1 524     ADBESHISAHAR01                                                                                                            446009779702989130                                                N0318005564005011                                NPRARJUN MAJAKOTI                                    20250311P                   180                 AVDD      A9999     000000000000000                    10                                                                                                                                             
475183    ADB8143006890       20250320IAD02005722                                        M1 GIRI                                    NARAYAN                                                                         19980210NEPAL                                   1 45-01-71-01170        524     AD8RAINASMUNICIPALITY                                                                                                     446009779805886526                                                O0318002005722014                                NPRNARAYAN GIRI                                      20250320P                   180                 AVDD      A9999     000000000000000                    10                                                                                                     ng263164@gmail.com                      
475183    ADB5196998467       20250219IAD05561901                                        M1 DHAMI                                   KHAGENDRA                                                                       19831215NEPAL                                   1 34340               2 524     ADDAKHADWADIVDC3PYUTHAN                                                                                                   446009779868281327                                                N0728805561901011                                NPRKHAGENDRA DHAMI                                   20250219P                   288                 AVDD      A9999     000000000000000                    10                                                                                                                                             
475183    ADB2270146131       20250311IAD05573334                                        M1 PANDEY                                  MEG                                     BAHADUR                                 19650827NEPAL                                   1 1501-93             2 524     ADMALLARANI04PANDEDADA                                                                                                    446009779847820597                                                N0728805573334013                                NPRMEG BAHADUR PANDEY                                20250311P                   288                 AVDD      A9999     000000000000000                    10                                                                                                                                             
475183    ADB8137790902       20250224IAD01610833                                        M1 KEWAT                                   BHAGHO                                                                          19700314NEPAL                                   1 053084/JA45         2 524     ADARIHANTMULTIFIBERID79360DUHABI                                                                                          446009779819458214                                                N0602801610833016                                NPRBHAGHO KEWAT                                      20250224P                   028                 AVDD      A9999     000000000000000                    10                                                                                                                                             
475183    ADB9673749543       20250309IAD00326532                                        M  THAPA                                   ARUNA                                                                           19700101NEPAL                                                           524     ADBIRATNAGAR                              BIRATNAGAR                              BIRATNAGAR                              446009779842469924                                                O0601600326532015                                NPRARUNA THAPA                                       20250309P                   016                 AVDD      A9999     000000000000000                    10                                                                                                                                             
475183    ADB4717585095       20250309IAD02026516                                        M1 RAI                                     HASTA                                   BHADHUR                                 19781202NEPAL                                   1 236/1020/044        2 524     AD2BARAHAMUNICIPALITY                                                                                                     446009779816851218                                                O0601602026516010                                NPRHASTA BHADHUR RAI                                 20250309P                   016                 AVDD      A9999     000000000000000                    10                                                                                                     srai27324@gmail.com                     
475183    ADB1097457782       20250309IAD05573550                                        M1 RAI                                     BIBEK                                                                           19891217NEPAL                                   1 860                 2 524     ADBIRATNAGAR11                                                                                                            446009779808385117                                                N0601605573550011                                NPRBIBEK RAI                                         20250309P                   016                 AVDD      A9999     000000000000000                    10                                                                                                                                             
475183    ADB2556603354       20250311IAD02026489                                        M1 GHIMIRE                                 UJWAL                                                                           19970401NEPAL                                   1 05-01-70-15594      1 524     AD1BUDHIGANGARURALMUNICIPALITY                                                                                            446009779816317124                                                O0601602026489013                                NPRUJWAL GHIMIRE                                     20250311P                   016                 AVDD      A9999     000000000000000                    10                                                                                                     ujwalghimire91@gmail.com                
475183    ADB1949255337       20250312IAD00332484                                        M1 POKHREL                                 TANK                                    PRASAD                                  19700101NEPAL                                                           524     ADBIRATNAGAR                              BIRATNAGAR                              BIRATNAGAR                              446009779842554576                                                O0601600332484014                                NPRTANK PRASAD  POKHREL                              20250312P                   016                 AVDD      A9999     000000000000000                    10                                                                                                     ankapp5140@gmail.com                    
475183    ADB5618386016       20250312IAD01765908                                        M1 BHATTARAI                               ANISH                                                                           20031207NEPAL                                   1 05-01-77-04891        524     ADBIRATNAGAR06                                                                                                            446009779814383549                                                O0601601765908011                                NPRANISH BHATTARAI                                   20250312P                   016                 AVDD      A9999     000000000000000                    10                                                                                                                                             
475183    ADB0709776802       20250316IAD05497546                                        M1 SHAH                                    SUNIL                                                                           19921025NEPAL                                   1 05166/3314          2 524     ADBIRATNAGAR15                                                                                                            446009779820381478                                                N0601605497546016                                NPRSUNIL SHAH                                        20250316P                   016                 AVDD      A9999     000000000000000                    10                                                                                                                                             
475183    ADB9234368714       20250316IAD00329294                                        M1 SAHA                                    RAMGOBIND                                                                       19700101NEPAL                                                           524     ADBHOKRAHA                                BHOKRAHA                                BHOKRAHA                                446009779842133925                                                O0601600329294018                                NPRRAMGOBIND  SAHA                                   20250316P                   016                 AVDD      A9999     000000000000000                    10                                                                                                                                             
475183    ADB4192231216       20250316IAD05471131                                        M1 SAPKOTA                                 GYANU                                   PRASAD                                  19710827NEPAL                                   1 1/2526              2 524     ADBIRATNAGAR13                                                                                                            446009779825010944                                                N0601605471131012                                NPRGYANU P SAPKOTA                                   20250316P                   016                 AVDD      A9999     000000000000000                    10                                                                                                                                             
475183    ADB5311789332       20250316IAD03056551                                        M1 UPADHYAYA                               NARAYAN                                 PRASAD                                  19711225NEPAL                                   1 1839-251            2 524     ADBIRATNAGARMETROPOLITANCITY                                                                                              446009779815330291                                                O0601603056551011                                NPRNARAYAN P UPADHYAYA                               20250316P                   016                 AVDD      A9999     000000000000000                    10                                                                                                                                             
475183    ADB6937230337       20250318IAD00324169                                        M1 POKHAREL                                BHOJ                                    RAJ                                     19670416NEPAL                                   1 135                 2 524     ADBIRATNAGAR5                                                                                                             446009779852025972                                                O0601600324169010                                NPRBHOJ RAJ POKHAREL                                 20250318P                   016                 AVDD      A9999     000000000000000                    10                                                                                                                                             
475183    ADB3797030009       20250318IAD05578706                                        F2 PARWEEN                                 SHAHEENA                                                                        20050627NEPAL                                   1 15-01-80-05210      1 524     ADBIRATNAGAR16                                                                                                            446009779825791368                                                N0601605578706018                                NPRSHAHEENA PARWEEN                                  20250318P                   016                 AVDD      A9999     000000000000000                    10                                                                                                                                             
475183    ADB5257169933       20250318IAD05574576                                        F2 KAMAT                                   RUNI                                    DEVI                                    19770127NEPAL                                   1 051066/1160         2 524     ADBIRATNAGAR12                                                                                                            446009779827321647                                                N0601605574576012                                NPRRUNI DEVI KAMAT                                   20250318P                   016                 AVDD      A9999     000000000000000                    10                                                                                                                                             
475183    ADB9192979963       20250319IAD03056297                                        F2 SONAR                                   KHUSHBU                                 KUMARI                                  20040119NEPAL                                   1 19-01-80-03907      1 524     ADHARIPURMUNICIPALITY                                                                                                     446009779817852004                                                O0601603056297018                                NPRKHUSHBU K SONAR                                   20250319P                   016                 AVDD      A9999     000000000000000                    10                                                                                                                                             
475183    ADB8555102002       20250319IAD05579256                                        F2 KATUWAL                                 DIKSHITA                                                                        20171212NEPAL                                   1 042046/1064         1 524     ADBIRATNAGAR11                                                                                                            446009779804012111                                                N0601605579256016                                NPRDIKSHITA KATUWAL                                  20250319P                   016                 AVDD      A9999     000000000000000                    10                                                                                                                                             
475183    ADB6776383230       20250319IAD05574623                                        F2 MEHTA                                   URMILA                                  KUMARI                                  19891020NEPAL                                   1 061030/123639       2 524     ADDEWANGUNJ4                                                                                                              446009779829626061                                                N0601605574623010                                NPRURMILA KUMARI MEHTA                               20250319P                   016                 AVDD      A9999     000000000000000                    10                                                                                                                                             
475183    ADB0625034611       20250319IAD05550863                                        M1 SAH                                     RAHUL                                                                           20021026NEPAL                                   1 05-01-76-02454      1 524     ADBIRATNAGAR15                                                                                                            446009779807066422                                                N0601605550863010                                NPRRAHUL SAH                                         20250319P                   016                 AVDD      A9999     000000000000000                    10                                                                                                                                             
475183    ADB0977827954       20250202IAD02005714                                        M1 GUPTA                                   JAICHAND                                KUMAR                                   19931213NEPAL                                   1 19-06-76-00341        524     AD7BARAHATHAWAMUNICIPALITY                                                                                                446009779812278756                                                O0507402005714012                                NPRJAICHAND K GUPTA                                  20250202P                   074                 AVDD      A9999     000000000000000                    10                                                                                                     aamanrocks.ag@gmail.com                 
475183    ADB4330040600       20250309IAD05572636                                        M1 PANDEY                                  BRIJESH                                                                         19870220NEPAL                                   1 3783                2 524     ADSAMMARIMAIGAPA03PANDITPUR                                                                                               446009779847086369                                                N0507405572636013                                NPRBRIJESH PANDEY                                    20250309P                   074                 AVDD      A9999     000000000000000                    10                                                                                                                                             
475183    ADB2781309574       20250310IAD04001952                                        M1 LAMA                                    DEV                                     KUMAR                                   19690604NEPAL                                   1 2662                  524     ADPANCHAKANYA02                                                                                                           446009779845024787                                                O0507404001952019                                NPRDEV KUMAR LAMA                                    20250310P                   074                 AVDD      A9999     000000000000000                    10                                                                                                                                             
475183    ADB2758447315       20250310IAD05574086                                        F2 KUMARI                                  RINKU                                                                           20030420NEPAL                                   1 34-01-79-09623      1 524     ADPARSAGADHINAPA05                                                                                                        446009779811842394                                                N0507405574086010                                NPRRINKU KUMARI                                      20250310P                   074                 AVDD      A9999     000000000000000                    10                                                                                                                                             
475183    ADB8602239877       20250310IAD05572048                                        M1 TELI                                    MANULAL                                 SAH                                     19850421NEPAL                                   1 52802149            2 524     ADBIRGUNJ13                                                                                                               446009779807271019                                                N0507405572048014                                NPRMANULAL SAH TELI                                  20250310P                   074                 AVDD      A9999     000000000000000                    10                                                                                                                                             
475183    ADB6291173589       20250310IAD00291932                                        M1 KURMI                                   LAL                                     BABU PRASAD                             19700101NEPAL                                                           524     ADBIRGUNJ                                 PARSA                                   PARSA                                   446009779845024782                                                O0507400291932010                                NPRLAL BABU P KURMI                                  20250310P                   074                 AVDD      A9999     000000000000000                    10                                                                                                                                             
475183    ADB9337227324       20250313IAD04001687                                        M1 HALKHOR                                 INARDEV                                 RAUT                                    19790301NEPAL                                   1 66611622              524     ADNICHUTA05                                                                                                               446009779765063475                                                O0507404001687013                                NPRINARDEV R HALKHOR                                 20250313P                   074                 AVDD      A9999     000000000000000                    10                                                                                                                                             
475183    ADB2986802279       20250313IAD05574561                                        F2 SHRESTHA                                AMBIKA                                                                          19870413NEPAL                                   1 273032/2442         2 524     ADTARKESHWARNAPA1                                                                                                         446009779804275770                                                N0507405574561010                                NPRAMBIKA SHRESTHA                                   20250313P                   074                 AVDD      A9999     000000000000000                    10                                                                                                     shyamchhetri110@gmail.com               
475183    ADB7845099946       20250313IAD05417957                                        F2 MESTARIN                                SHARDHA                                                                         19960629NEPAL                                   1 34-01-80-08370      2 524     ADBIRGUNJ16                                                                                                               446009779827532231                                                N0507405417957016                                NPRSHARDHA MESTARIN                                  20250313P                   074                 AVDD      A9999     000000000000000                    10                                                                                                                                             
475183    ADB4568082292       20250313IAD05568170                                        M1 MAHATO                                  DEV                                     NARAYAN                                 19960115NEPAL                                   1 80720943            2 524     ADJERABHAWANI01                                                                                                           446009779807129105                                                N0507405568170018                                NPRDEV NARAYAN MAHATO                                20250313P                   074                 AVDD      A9999     000000000000000                    10                                                                                                                                             
