475183    ADB6337948442       20250317IAD05550824                                        M1 GIRI                                    UMA                                                                             19840923NEPAL                                   1 522007/200          2 524     ADRAPTIRURALMUNICIPALITY04                                                                                                446009779867365131                                                N0919005550824017                                NPRUMA GIRI                                          20250317P                   190                 AVDD      A9999     000000000000000                    10                                                                                                                                             
475183    ADB6392128700       20250310IAD01266083                                        M1 UPADHYA                                 SAGAR                                                                           19700101NEPAL                                                           524     ADNARAYANGADH                             NARAYANGADH                             NARAYANGADH                             446009779845798632                                                O0414901266083016                                NPRSAGAR UPADHYA                                     20250310P                   149                 AVDD      A9999     000000000000000                    10                                                                                                                                             
475183    ADB9945480071       20250309IAD05510204                                        F2 SINGH                                   GITANJALI                                                                       19970713NEPAL                                   1 19-01-79-00501      2 524     ADHARIPUR03                                                                                                               446009779702353982                                                N1006705510204011                                NPRGITANJALI SINGH                                   20250309P                   067                 AVDD      A9999     000000000000000                    10                                                                                                                                             
475183    ADB9651060796       20240304IAD01717217                                        M1 SHERPA                                  PHURBA                                                                          19920123NEPAL                                   1 AD01717217            524     ADDEUMAI03                                                                                                                446009779845726008                                                O0601101717217010                                NPRPHURBA SHERPA                                     20240304P                   011                 AVDD      A9999     000000000000000                    10                                                                                                                                             
475183    ADB5316486949       20250310IAD05350957                                        F2 DARJI                                   BAREK                                   KUMARI                                  19670819NEPAL                                   1 1052-907            2 524     ADJITPUR1                                                                                                                 446009779825972267                                                N0601105350957018                                NPRBAREK KUMARI DARJI                                20250310P                   011                 AVDD      A9999     000000000000000                    10                                                                                                                                             
475183    ADB9832331210       20250309IAD02004327                                        M1 GURUNG                                  KISHAN                                                                          19910912NEPAL                                   1 421032/97             524     ADBHIRKOTMUNICIPAITY8                                                                                                     446009779856063332                                                O0318802004327010                                NPRKISHAN GURUNG                                     20250309P                   188                 AVDD      A9999     000000000000000                    10                                                                                                     grgkishan1991@gmail.com                 
475183    ADB5602537801       20250309IAD00412661                                        F2 SHAHI                                   SARASWATI                               KUMARI                                  19890413NEPAL                                   1 701017/366          2 524     ADLAMKICHUHA1PURBALAMKI                                                                                                   446009779848513652                                                O0824900412661011                                NPRSARASWATI K SHAHI                                 20250309P                   249                 AVDD      A9999     000000000000000                    10                                                                                                                                             
475183    ADB2069208070       20250312IAD01479511                                        M1 CHANDARA                                KARNA                                   BAHADUR                                 19920121NEPAL                                   1 621001/86           2 524     ADKUSHE06                                                                                                                 446009779868147479                                                N0721101479511014                                NPRKARNA B CHANDARA                                  20250312P                   211                 AVDD      A9999     000000000000000                    10                                                                                                                                             
475183    ADB4939966576       20250314IAD01511894                                        M1 NEPALI                                  BHIM                                    BAHADUR                                 19950208NEPAL                                   1 621012/696          2 524     ADKUSHE07                                                                                                                 446009779744275149                                                N0721101511894011                                NPRBHIM BAHADUR NEPALI                               20250314P                   211                 AVDD      A9999     000000000000000                    10                                                                                                                                             
475183    ADB3622502889       20250314IAD01501704                                        M1 SINGH                                   TILAK                                   BAHADUR                                 19761031NEPAL                                   1 394                 2 524     ADKUSE2                                                                                                                   446009779745499287                                                N0721101501704018                                NPRTILAK BAHADUR SINGH                               20250314P                   211                 AVDD      A9999     000000000000000                    10                                                                                                                                             
475183    ADB7508597406       20250321IAD01511144                                        M1 SINGH                                   AIN                                     BAHADUR                                 19680416NEPAL                                   1 339                 2 524     ADKUSE05                                                                                                                  446009779842371737                                                N0721101511144010                                NPRAIN BAHADUR SINGH                                 20250321P                   211                 AVDD      A9999     000000000000000                    10                                                                                                                                             
475183    ADB4286900332       20250321IAD01559294                                        M1 POKHREL                                 SURESH                                                                          19700101NEPAL                                                           524     ADBIJAYA                                  UDAYPUR                                 UDAYPUR                                 446009779861530085                                                O1103701559294015                                NPRSURESH  POKHREL                                   20250321P                   037                 AVDD      A9999     000000000000000                    10                                                                                                                                             
475183    ADB0790264863       20250317IAD01802664                                        M1 MAINALI                                 AMIN                                                                            19830724NEPAL                                   1 95029                 524     ADINDRAWATI06                                                                                                             446009779761806849                                                O0211401802664010                                NPRAMIN MAINALI                                      20250317P                   114                 AVDD      A9999     000000000000000                    10                                                                                                                                             
475183    ADB8996860763       20250310IAD05138188                                        F2 SHRESTHA                                SHUSILA                                                                         19850414NEPAL                                   1 1                   2 524     ADGAUSALA02                                                                                                               446009779845290729                                                O0508305138188011                                NPRSHUSILA SHRESTHA                                  20250310P                   083                 AVDD      A9999     000000000000000                    10                                                                                                                                             
475183    ADB1629816209       20250311IAD01308854                                        M1 KHAN                                    ABDULA                                                                          19700101NEPAL                                                           524     ADINARUWA                                 TOLE                                    TOLE                                    446009779802724000                                                O0602301308854011                                NPRABDULLA  KHAN                                     20250311P                   023                 AVDD      A9999     000000000000000                    10                                                                                                                                             
475183    ADB6478536463       20250311IAD01188311                                        M1 MEHTA                                   KAPILDEV                                                                        19930820NEPAL                                   1 061037/165266       1 524     ADINARUWA02MANAKAMANATOLE                                                                                                 446009779702193761       9702193761                               N0602301188311017                                NPRKAPILDEV MEHTA                                    20250311P                   023                 AVDD      A9999     000000000000000                    10                                                                                                     kapildevmehta1993@gmail.com             
475183    ADB2356358406       20250313IAD01004759                                        F2 KAFLE                                   ISHORA                                                                          20030818NEPAL                                   1 06017608622         1 524     ADINARUWANAPA06                                                                                                           446009779829392681       9829392681                               N0602301004759010                                NPRISHORA KAFLE                                      20250313P                   023                 AVDD      A9999     000000000000000                    10                                                                                                                                             
475183    ADB6906014113       20250318IAD00688526                                        M1 MAGAR                                   LELIN                                                                           19700101NEPAL                                                           524     ADKHANDBARI                               SANKHUWASAVA                            SANKHUWASAVA                            446009779823597413                                                O0603400688526011                                NPRLELIN MAGAR                                       20250318P                   034                 AVDD      A9999     000000000000000                    10                                                                                                                                             
475183    ADB2719547059       20250310IAD05572575                                        F2 SHRESTHA                                SAPANA                                                                          19760309NEPAL                                   1 05-02-72-05493      2 524     ADITAHARI09                                                                                                               446009779869400325                                                N0602605572575012                                NPRSAPANA SHRESTHA                                   20250310P                   026                 AVDD      A9999     000000000000000                    10                                                                                                                                             
475183    ADB3082946569       20250310IAD05568174                                        M1 KHANAL                                  BISHAL                                                                          20020730NEPAL                                   1 06-01-78-01155      1 524     ADITAHARI08JHURKI                                                                                                         446009779822397737                                                N0602605568174011                                NPRBISHAL KHANAL                                     20250310P                   026                 AVDD      A9999     000000000000000                    10                                                                                                                                             
475183    ADB7344852801       20250310IAD01186782                                        M1 RAI                                     SONY                                                                            19700101NEPAL                                                           524     ADSANKHUWASAVA                            SIDDHAKALI                              SIDDHAKALI                              446009779702933700                                                O0211501186782017                                NPRSONY RAI                                          20250310P                   115                 AVDD      A9999     000000000000000                    10                                                                                                                                             
475183    ADB5169467851       20250312IAD01967244                                        M1 BISTA                                   SANDESH                                 BIKRAM                                  20001024NEPAL                                   1 AD01967244            524     ADITAHARI02PIPALCHWOK                                                                                                     446009779862061330                                                O0602601967244011                                NPRSANDESH B BISTA                                   20250312P                   026                 AVDD      A9999     000000000000000                    10                                                                                                                                             
475183    ADB5673609074       20250313IAD03044443                                        M1 BHARATI                                 KHAGENDRA                               KUMAR                                   20040405NEPAL                                   1 02-01-78-01336      1 524     ADITAHARISUBMETROPOLITANCITY                                                                                              446009779746987876                                                O0602603044443012                                NPRKHAGENDRA K BHARATI                               20250313P                   026                 AVDD      A9999     000000000000000                    10                                                                                                                                             
475183    ADB3890002671       20250320IAD05566857                                        F2 DANGAL                                  KAMALA                                                                          19970215NEPAL                                   1 043045/222          2 524     ADSUNDARHARAICHA04BALIYA                                                                                                  446009779841974681                                                N0602605566857014                                NPRKAMALA DANGAL                                     20250320P                   026                 AVDD      A9999     000000000000000                    10                                                                                                                                             
475183    ADB2744920442       20250320IAD05580191                                        F2 BHATTARAI                               MUNA                                                                            19951214NEPAL                                   1 073024/75           2 524     ADITAHARI02                                                                                                               446009779848800425                                                N0602605580191010                                NPRMUNA BHATTARAI                                    20250320P                   026                 AVDD      A9999     000000000000000                    10                                                                                                                                             
475183    ADB8620210616       20250321IAD00545381                                        M1 KAFLE                                   JAGADISH                                                                        19730126NEPAL                                   1 6763                  524     ADITAHARI08                                                                                                               446009779842061485                                                O0602600545381018                                NPRJAGADISH KAFLE                                    20250321P                   026                 AVDD      A9999     000000000000000                    10                                                                                                                                             
475183    ADB4159623653       20250319IAD05578047                                        F2 KHADKA                                  KABITA                                                                          20030324NEPAL                                   1 62-01-78-01506      2 524     ADBHERI02RISANG                                                                                                           446009779769997481                                                N0721105578047015                                NPRKABITA KHADKA                                     20250319P                   211                 AVDD      A9999     000000000000000                    10                                                                                                                                             
475183    ADB5334367755       20250319IAD05578043                                        F2 SINGH                                   SURITA                                                                          20070315NEPAL                                   1 62-01-80-05214      1 524     ADKUSHE07NARE                                                                                                             446009779749888191                                                N0721105578043011                                NPRSURITA SINGH                                      20250319P                   211                 AVDD      A9999     000000000000000                    10                                                                                                                                             
475183    ADB5255945607       20250319IAD05576704                                        F2 B.K                                     SUMITRA                                                                         19940722NEPAL                                   1 621005/1468         1 524     ADBHERI03SYALA                                                                                                            446009779845568944                                                N0721105576704019                                NPRSUMITRA B.K                                       20250319P                   211                 AVDD      A9999     000000000000000                    10                                                                                                                                             
475183    ADB3960836704       20250310IAD01319687                                        M1 SINGH                                   RUPESH                                  KUMAR                                   19821025NEPAL                                   1 70071741            2 524     ADPARSAPATAILI08                                                                                                          446009779765758352                                                N1005901319687019                                NPRRUPESH KUMAR SINGH                                20250310P                   059                 AVDD      A9999     000000000000000                    10                                                                                                                                             
475183    ADB3300688006       20250309IAD05105670                                        M1 GHIMIRE                                 HARI                                    PRASAD                                  19801205NEPAL                                   1 9602/3073           2 524     ADBANGANGA 08                                                                                                             446009779847520156                                                O0415605105670014                                NPRHARI PRASAD GHIMIRE                               20250309P                   156                 AVDD      A9999     000000000000000                    10                                                                                                                                             
475183    ADB4750685049       20250311IAD05377381                                        F2 HARIJAN                                 LAXMI                                   KUMARI                                  19940522NEPAL                                   1 38-01-067-05683     2 524     ADBANGANGA10PATANA                                                                                                        446009779821993664                                                N0415605377381011                                NPRLAXMI K HARIJAN                                   20250311P                   156                 AVDD      A9999     000000000000000                    10                                                                                                                                             
475183    ADB6423661484       20250318IAD05399179                                        F2 CHHETRI                                 SABITA                                  BHAT                                    20040128NEPAL                                   1 40-01-80-02965      2 524     ADSHITGANGA12ARGHAKHACHI                                                                                                  446009779769294480                                                N0415605399179011                                NPRSABITA BHAT CHHETRI                               20250318P                   156                 AVDD      A9999     000000000000000                    10                                                                                                                                             
475183    ADB1218624913       20250318IAD05578574                                        M1 ACHARYA                                 GOPAL                                                                           19670118NEPAL                                   1 197/2307            2 524     ADBANGANGA05JHANDA                                                                                                        446009779857034480                                                N0415605578574012                                NPRGOPAL ACHARYA                                     20250318P                   156                 AVDD      A9999     000000000000000                    10                                                                                                                                             
475183    ADB1193525025       20250320IAD05571916                                        M1 PANDEY                                  BUDDHI                                  BAHADUR                                 19840529NEPAL                                   1 3842/2719/044       2 524     ADBANGANGA05MADHAULIYA                                                                                                    446009779843694133                                                N0415605571916015                                NPRBUDDHI B PANDEY                                   20250320P                   156                 AVDD      A9999     000000000000000                    10                                                                                                                                             
475183    ADB7708888444       20250321IAD05239607                                        F2 PARIYAR                                 SAPANA                                                                          20040417NEPAL                                   1 40-01-77-03603      1 524     ADBANGANGA04DARSANCHOK                                                                                                    446009779742981534                                                N0415605239607017                                NPRSAPANA PARIYAR                                    20250321P                   156                 AVDD      A9999     000000000000000                    10                                                                                                                                             
475183    ADB4717590043       20250316IAD03018127                                        F2 DAMAI                                   NANDA                                   DEVI                                    19730910NEPAL                                   1 753010/200          2 524     ADSHUKLAPHANTAMUNICIPALITY                                                                                                446009779812747855                                                N0824603018127011                                NPRNANDA DEVI DAMAI                                  20250316P                   246                 AVDD      A9999     000000000000000                    10                                                                                                                                             
475183    ADB2729552715       20250318IAD01701907                                        M1 JOSHI                                   PRAKASH                                                                         20051227NEPAL                                   1 75-01-71-04153      1 524     ADSHUKLAPHATA5                                                                                                            446009779767450616                                                N0824601701907011                                NPRPRAKASH JOSHI                                     20250318P                   246                 AVDD      A9999     000000000000000                    10                                                                                                                                             
475183    ADB6114061921       20250319IAD05577815                                        M1 KHAJA                                   A                                       K                                       19840523NEPAL                                   1 57478315            2 524     ADSHUKLAPHATAMUNICIPALITY8                                                                                                446009779810657128                                                N0824605577815011                                NPRA K KHAJA                                         20250319P                   246                 AVDD      A9999     000000000000000                    10                                                                                                                                             
475183    ADB3546913679       20250309IAD05573548                                        M1 TAMRAKAR                                SUBASH                                                                          19990921NEPAL                                   1 67-01-75-02663      2 524     ADGODAWARI03                                                                                                              446009779766566805                                                N0827205573548011                                NPRSUBASH TAMRAKAR                                   20250309P                   272                 AVDD      A9999     000000000000000                    10                                                                                                                                             
475183    ADB0002407022       20250314IAD05576280                                        M1 BOHARA                                  SHER                                    BAHADUR                                 19720923NEPAL                                   1 265/2825            2 524     ADPARSHURAM03                                                                                                             446009779862462503                                                N0827205576280018                                NPRSHER BAHADUR BOHARA                               20250314P                   272                 AVDD      A9999     000000000000000                    10                                                                                                                                             
475183    ADB2227394902       20250316IAD05577085                                        F2 JOSHI                                   TULASI                                                                          20020302NEPAL                                   1 74-02-78-01428      2 524     ADPARSHURAM10                                                                                                             446009779865565883                                                N0827205577085014                                NPRTULASI JOSHI                                      20250316P                   272                 AVDD      A9999     000000000000000                    10                                                                                                                                             
475183    ADB7784338085       20250316IAD01718679                                        F2 NEPALI                                  DURGI                                                                           19891014NEPAL                                   1 481006/178          2 524     ADJOMSOM5                                                                                                                 446009779844738646                                                N0318801718679011                                NPRDURGI NEPALI                                      20250316P                   188                 AVDD      A9999     000000000000000                    10                                                                                                                                             
475183    ADB7452639151       20250309IAD05573293                                        M1 SAUD                                    DABAL                                                                           20070224NEPAL                                   1 68-01-81-04336      1 524     ADJORAYAL06                                                                                                               446009779764402738                                                N0827105573293017                                NPRDABAL SAUD                                        20250309P                   271                 AVDD      A9999     000000000000000                    10                                                                                                                                             
475183    ADB7589331294       20250309IAD05573375                                        M1 SAUD                                    RAJENDRA                                BAHADUR                                 20061130NEPAL                                   1 68-01-81-04688      1 524     ADJORAYAL6                                                                                                                446009779849090928                                                N0827105573375013                                NPRRAJENDRA B SAUD                                   20250309P                   271                 AVDD      A9999     000000000000000                    10                                                                                                                                             
475183    ADB5910700269       20250320IAD01504278                                        M1 DEUBA                                   SARASWOTI                               M.                                      19700101NEPAL                                                           524     ADJORAYAL                                 GADSERA                                 GADSERA                                 446009779863110720                                                O0827101504278019                                NPRSARASWOTI M. DEUBA                                20250320P                   271                 AVDD      A9999     000000000000000                    10                                                                                                                                             
475183    ADB4123311915       20250309IAD01734164                                        M1 BASNET                                  UJWAL                                                                           19900825NEPAL                                   1 211030/6721/241       524     ADMANTHALI09                                                                                                              446009779851140490                                                O1006901734164017                                NPRUJWAL BASNET                                      20250309P                   069                 AVDD      A9999     000000000000000                    10                                                                                                                                             
475183    ADB9133244493       20250311IAD00510546                                        F2 TAMANG                                  KANCHI                                  MAYA                                    19930208NEPAL                                   1 271015/108972       1 524     ADJORPATI4                                                                                                                446009779813985585                                                N0210800510546015                                NPRKANCHI MAYA TAMANG                                20250311P                   108                 AVDD      A9999     000000000000000                    10                                                                                                                                             
475183    ADB0979316654       20250318IAD00090119                                        M1 LAMA                                    PASANG                                  DORJE                                   19730413NEPAL                                   1 211045-2264-3384-65   524     ADLAKHANPUR8                                                                                                              446009779840413540                                                O0210800090119019                                NPRPASANG DORJE LAMA                                 20250318P                   108                 AVDD      A9999     000000000000000                    10                                                                                                                                             
475183    ADB9809589793       20250319IAD05220026                                        M1 LAMA                                    KARMA                                                                           19941001NEPAL                                   1 24-0-70-01868       2 524     ADBARUWA8                                                                                                                 446009779828886696                                                N0210805220026011                                NPRKARMA LAMA                                        20250319P                   108                 AVDD      A9999     000000000000000                    10                                                                                                                                             
475183    ADB1413267808       20250320IAD05513538                                        F2 TAMANG                                  SAPANA                                                                          20050624NEPAL                                   3 24-01-80-09048      1 524     ADMELAMCHI11                                                                                                              446009779813992112                                                N0213605513538017                                NPRSAPANA TAMANG                                     20250320P                   136                 AVDD      A9999     000000000000000                    10                                                                                                                                             
475183    ADB9387630676       20250321IAD01746785                                        M1 DHUNGEL                                 DAMODAR                                                                         19710923NEPAL                                   1 2605/3536             524     ADKATHMANDU32                                                                                                             446009779849506308                                                O0210801746785017                                NPRDAMODAR DHUNGEL                                   20250321P                   108                 AVDD      A9999     000000000000000                    10                                                                                                                                             
475183    ADB0350303178       20250314IAD01100098                                        M1 RAWAL                                   MEEN                                    BAHADUR                                 19740809NEPAL                                   1 2601                2 524     ADCHANDANNATH07                                                                                                           446009779858390283                                                N0721301100098017                                NPRMEEN BAHADUR RAWAL                                20250314P                   213                 AVDD      A9999     000000000000000                    10                                                                                                     rawalmeen283@gmail.com                  
475183    ADB9115375433       20250316IAD01635548                                        F2 KUMAI                                   BIMALA                                                                          19930604NEPAL                                   1 60/635                524     ADCHANDANNATH02BHANDARIBADA                                                                                               446009779866219600                                                O0721301635548011                                NPRBIMALA KUMAI                                      20250316P                   213                 AVDD      A9999     000000000000000                    10                                                                                                                                             
475183    ADB8543376183       20250317IAD05577328                                        M1 YADAV                                   BIBEK                                   KUMAR                                   20050323NEPAL                                   1 16-06-78-00377      1 524     ADbodebarshine                                                                                                            446009779803493757       9803493757                               N0721305577328011                                NPRBIBEK KUMAR YADAV                                 20250317P                   213                 AVDD      A9999     000000000000000                    10                                                                                                     yadavbibekkumar420@gmail.com            
475183    ADB6709618983       20250227IAD00814850                                        F2 AHIRIN                                  BINDAWA                                                                         19680816NEPAL                                   1 198/1098            2 524     ADSUBARANRURALMUNICIPALITY06                                                                                              446009779764754314                                                N0507500814850034                                NPRBINDAWA AHIRIN                                    20250227P                   075                 AVDD      A9999     000000000000000                    10                                                                                                                                             
475183    ADB8049451010       20250311IAD05573160                                        M1 YADAV                                   BIJAY                                   KUMAR                                   19871206NEPAL                                   1 2830/2874           2 524     ADKALAIYA21                                                                                                               446009779845857883                                                N0507505573160017                                NPRBIJAY KUMAR YADAV                                 20250311P                   075                 AVDD      A9999     000000000000000                    10                                                                                                                                             
475183    ADB9926987149       20250311IAD05570205                                        F2 AKHTAR                                  RASIDA                                                                          20060127NEPAL                                   1 33-01-80-12948      1 524     ADKALAIYA07                                                                                                               446009779709333838                                                N0507505570205011                                NPRRASIDA AKHTAR                                     20250311P                   075                 AVDD      A9999     000000000000000                    10                                                                                                                                             
475183    ADB0601120036       20250310IAD05574236                                        M1 DHAMI                                   KHAGENDRA                               SINGH                                   20040316NEPAL                                   1 73-01-79-04477      1 524     ADBAITADI05                                                                                                               446009779700509553                                                N0211005574236019                                NPRKHAGENDRA S DHAMI                                 20250310P                   110                 AVDD      A9999     000000000000000                    10                                                                                                                                             
475183    ADB0212343435       20250312IAD05575165                                        M1 GIRI                                    MAHENDRA                                                                        20060204NEPAL                                   1 53-01-79-01424      1 524     ADGAUMUKHI7                                                                                                               446009779765388191                                                N0211005575165018                                NPRMAHENDRA GIRI                                     20250312P                   110                 AVDD      A9999     000000000000000                    10                                                                                                     girimahendr@gmail.com                   
475183    ADB7321477657       20250312IAD05575166                                        M1 TAMANG                                  SHANKAR                                                                         20050531NEPAL                                   1 26-01-81-01824      1 524     ADGAJURI08                                                                                                                446009779812276811                                                N0211005575166014                                NPRSHANKAR TAMANG                                    20250312P                   110                 AVDD      A9999     000000000000000                    10                                                                                                                                             
475183    ADB8153903906       20250314IAD00078829                                        M1 KOIRALA                                 MRS.                                    PRAMILA                                 19700101NEPAL                                                           524     ADTELLER                                  ASSISTAN                                ASSISTAN                                446009779841401547                                                O0210300078829016                                NPRPRAMILA  KOIRALA                                  20250314P                   103                 AVDD      A9999     000000000000000                    10                                                                                                                                             
475183    ADB7290551516       20250314IAD00035755                                        M1 POKHAREL                                NARAYAN                                 PRASAD                                  19590110NEPAL                                   1 4506/861              524     ADKAWASOTI8                                                                                                               446009779851135069                                                O0210000035755011                                NPRNARAYAN PD POKHAREL                               20250314P                   100                 AVDD      A9999     000000000000000                    10                                                                                                     nppokhrel26@gmail.com                   
475183    ADB1494551745       20250314IAD00047155                                        M1 POUDEL                                  NILAKANTHA                                                                      19700101NEPAL                                                           524     ADMAITRINAGAR                             MAITRINAGAR                             MAITRINAGAR                             446009779851199195                                                O0211000047155017                                NPRNILAKANTHA POUDEL                                 20250314P                   110                 AVDD      A9999     000000000000000                    10                                                                                                                                             
475183    ADB2719321606       20250317IAD01087083                                        M1 THAPA                                   MAN                                     BAHADUR                                 19700101NEPAL                                                           524     ADBAGESHWORI                              KHAJURA                                 KHAJURA                                 446009779800549820                                                O0720401087083014                                NPRMAN BAHADUR THAPA                                 20250317P                   204                 AVDD      A9999     000000000000000                    10                                                                                                                                             
475183    ADB1063583453       20250317IAD01708124                                        F  MAGAR                                   KHUSHI                                  ALE                                     20111019NEPAL                                   1 11                    524     ADKATHMANDUMETROPOLITION14RANIPURI                                                                                        446009779860660883                                                O0211101708124017                                NPRGANGA K KHATRI                                    20250317P                   111                 AVDD      A9999     000000000000000                    10                                                                                                     gakkhatri48@gmail.com                   
475183    ADB8016597741       20250318IAD05272995                                        M1 UPADHYAY                                PRADIP                                  KUMAR                                   19610312NEPAL                                   1 71432448            2 524     ADHETAUDA04                                                                                                               446009779851123633                                                N0211005272995018                                NPRPRADIP K UPADHYAY                                 20250318P                   110                 AVDD      A9999     000000000000000                    10                                                                                                                                             
475183    ADB6957274241       20250318IAD05578649                                        F2 BHOLAN                                  ANUSA                                                                           19991207NEPAL                                   1 30-02-79-00273      2 524     ADBANEPA06                                                                                                                446009779763377260                                                N0211005578649016                                NPRANUSA BHOLAN                                      20250318P                   110                 AVDD      A9999     000000000000000                    10                                                                                                                                             
475183    ADB4465630462       20250318IAD05578793                                        M1 REGMI                                   HARI                                    SHARAN                                  19890109NEPAL                                   1 551022/899          2 524     ADKUMOKH02                                                                                                                446009779841985551                                                N0211005578793011                                NPRHARI SHARAN REGMI                                 20250318P                   110                 AVDD      A9999     000000000000000                    10                                                                                                     rharisharan110@gmail.com                
475183    ADB3367697408       20250309IAD05547855                                        F2 GURUNG                                  INDIRA                                                                          19760226NEPAL                                   5 5063/2024           1 524     ADDARJEELING                                                                                                              446009779849631765                                                N0210305547855017                                NPRINDIRA GURUNG                                     20250309P                   103                 AVDD      A9999     000000000000000                    10                                                                                                                                             
475183    ADB9941103355       20250309IAD05558913                                        F2 NECHAL                                  MANITA                                                                          19640612NEPAL                                   5 9234/2024           1 524     ADDARJEELINGPANCHAYAT                                                                                                     446009779849591845                                                N0210305558913019                                NPRMANITA NECHAL                                     20250309P                   103                 AVDD      A9999     000000000000000                    10                                                                                                                                             
475183    ADB4567473077       20250310IAD05348114                                        M1 PAUDEL                                  RAJU                                                                            20030406NEPAL                                   1 21-01-77-02841      1 524     ADKHANDADEVI03                                                                                                            446009779826741004                                                O0210305348114016                                NPRRAJU PAUDEL                                       20250310P                   103                 AVDD      A9999     000000000000000                    10                                                                                                                                             
475183    ADB0585952420       20250311IAD01160365                                        M1 REGMI                                   SAJJAN                                                                          19700101NEPAL                                                           524     ADHETAUDA                                 TRISULI                                 TRISULI                                 446009779865369027                                                O0508301160365019                                NPRSAJJAN  REGMI                                     20250311P                   083                 AVDD      A9999     000000000000000                    10                                                                                                                                             
475183    ADB9793670889       20250312IAD00168856                                        M1 MAHARJAN                                BABURAJA                                                                        19650515NEPAL                                   1 3385                2 524     ADBANASTHALIBHRIKUTITOL08                                                                                                 446009779818363775                                                N0210300168856012                                NPRBABURAJA MAHARJAN                                 20250312P                   103                 AVDD      A9999     000000000000000                    10                                                                                                                                             
475183    ADB9842571418       20250314IAD05568427                                        M1 B.K.                                    HIMAL                                                                           20050928NEPAL                                   1 61-01-81-02924      1 524     ADPALATA03                                                                                                                446009779769841562                                                N0210305568427015                                NPRHIMAL B.K.                                        20250314P                   103                 AVDD      A9999     000000000000000                    10                                                                                                     himalbk281@gmail.com                    
475183    ADB5139621135       20250317IAD01707886                                        M1 SHRESTHA                                BALARAM                                                                         19970609NEPAL                                   1 21-01-72-00229        524     ADMANTHALI13                                                                                                              446009779860366895                                                O0210301707886016                                NPRBALARAM SHRESTHA                                  20250317P                   103                 AVDD      A9999     000000000000000                    10                                                                                                                                             
475183    ADB0877950310       20250319IAD05567328                                        F2 MAHARJAN                                DIPTI                                   GASHI                                   19880515NEPAL                                   1 27-01-73-11243      2 524     ADKATHMANDU13TAHACHAL                                                                                                     446009779869193895                                                N0210305567328013                                NPRDIPTI G MAHARJAN                                  20250319P                   103                 AVDD      A9999     000000000000000                    10                                                                                                                                             
475183    ADB5581744607       20250319IAD05567643                                        F2 MAGAR                                   SUMITRA                                 KUMARI                                  19980814NEPAL                                   1 142041/6842         1 524     ADUDYAPUR07                                                                                                               446009779823060771                                                N0210305567643016                                NPRSUMITRA K MAGAR                                   20250319P                   103                 AVDD      A9999     000000000000000                    10                                                                                                                                             
475183    ADB6321474979       20250319IAD05567867                                        M1 PANDEY                                  TIKA                                    RAM                                     19781018NEPAL                                   1 50                  2 524     ADGULMI01                                                                                                                 446009779767981332                                                N0210305567867011                                NPRTIKA RAM PANDEY                                   20250319P                   103                 AVDD      A9999     000000000000000                    10                                                                                                     tikapandey4@icloud.com                  
475183    ADB4534990771       20250319IAD05566209                                        F2 RAI                                     BHIM                                    KUMARI                                  19821229NEPAL                                   1 038473/147          2 524     ADJOGMAI2                                                                                                                 446009779808424758                                                N0210305566209010                                NPRBHIM KUMARI RAI                                   20250319P                   103                 AVDD      A9999     000000000000000                    10                                                                                                                                             
475183    ADB5690703997       20250319IAD05566172                                        M1 LIMBU                                   TIKA                                    RAM                                     19830325NEPAL                                   1 74778               2 524     ADSINGHDEVI3                                                                                                              446009779808140201                                                N0210305566172011                                NPRTIKA RAM LIMBU                                    20250319P                   103                 AVDD      A9999     000000000000000                    10                                                                                                                                             
475183    ADB2855209448       20250319IAD05574834                                        F2 SUBEDI                                  SEEMA                                                                           19880512NEPAL                                   1 146827              2 524     ADPOKHARA4SIDDHANATH                                                                                                      446009779851173956                                                N0210305574834013                                NPRSEEMA SUBEDI                                      20250319P                   103                 AVDD      A9999     000000000000000                    10                                                                                                     seema3subedi@gmail.com                  
475183    ADB1112858192       20250319IAD05575877                                        F2 BHANDARI                                MAIMA                                                                           20000625NEPAL                                   1 52-06-79-03183      1 524     ADRAJAPURKHARDARRIYA03                                                                                                    446009779818444395                                                N0210305575877018                                NPRMAIMA BHANDARI                                    20250319P                   103                 AVDD      A9999     000000000000000                    10                                                                                                                                             
475183    ADB7420335246       20250319IAD05575337                                        F2 BISHWAKARMA                             SAKILA                                                                          20050709NEPAL                                   1 22-01-80-02329      1 524     ADSAILUNGGAUPALIKA8                                                                                                       446009779767316546                                                N0210305575337013                                NPRSAKILA BISHWAKARMA                                20250319P                   103                 AVDD      A9999     000000000000000                    10                                                                                                                                             
475183    ADB0933397453       20250319IAD05576364                                        F2 BHANDARI                                SABITRI                                                                         20060521NEPAL                                   1 26-01-81-06048      1 524     ADJOGIBISAUNA06                                                                                                           446009779748308627                                                N0210305576364014                                NPRSABITRI BHANDARI                                  20250319P                   103                 AVDD      A9999     000000000000000                    10                                                                                                                                             
475183    ADB4441256474       20250319IAD00141923                                        F2 MAHARJAN                                NARAYAN                                                                         19470319NEPAL                                   1 271060/99991        2 524     ADKATHMANDU21                                                                                                             446009779841718288                                                N0210300141923011                                NPRNARAYAN MAHARJAN                                  20250319P                   103                 AVDD      A9999     000000000000000                    10                                                                                                                                             
475183    ADB0555211619       20250320IAD00771089                                        M1 GHATANI                                 TIKA                                    BAHADUR                                 19720810NEPAL                                   1 120292/103            524     ADKHARELTHOK7                                                                                                             446009779841668598                                                O0212700771089013                                NPRTIKA B GHATANI                                    20250320P                   127                 AVDD      A9999     000000000000000                    10                                                                                                                                             
475183    ADB7546508365       20250321IAD00177157                                        M1 MAGAR                                   KHEM                                    B.THAPA                                 19700101NEPAL                                                           524     ADSAYANGA                                 SAYANGA                                 SAYANGA                                 446009779851045546                                                O0210300177157011                                NPRKHEM B.THAPA  MAGAR                               20250321P                   103                 AVDD      A9999     000000000000000                    10                                                                                                                                             
475183    ADB8204828537       20250321IAD05581139                                        M1 MAGAR                                   KIRAN                                   THAPA                                   19930626NEPAL                                   1 441011/437          2 524     ADTANGLICHOCK8                                                                                                            446009779841722133                                                N0210305581139010                                NPRKIRAN THAPA MAGAR                                 20250321P                   103                 AVDD      A9999     000000000000000                    10                                                                                                     kmthapa09@gmail.com                     
475183    ADB4088868374       20250318IAD01747058                                        M1 RAM                                     MUKESH                                  KUMAR                                   19980718NEPAL                                   1 16-01-71-09562        524     ADSURUNGANAPA4                                                                                                            446009779827717144       9827717144                               O1103701747058019                                NPRMUKESH KUMAR RAM                                  20250318P                   037                 AVDDNGP   A9999     000000000000000                    10                                                                                                                                             
475183    ADB3291226304       20250318IAD00837461                                        F  MALIK                                   PAWAN                                   KUMARI                                  19860410NEPAL                                   1 161079/31             524     ADKHADAKNPA6SAPTARI                                                                                                       446009779826729460       9826729460                               O1103700837461010                                NPRPAWAN KUMARI MALIK                                20250318P                   037                 AVDDNGP   A9999     000000000000000                    10                                                                                                                                             
475183    ADB8908773236       20250318IAD01195783                                        F2 KHATUN                                  JAIFUL                                                                          19860124NEPAL                                   1 6162                2 524     ADBODEBARSAINNAPA03SARSWAR                                                                                                446009779805903973                                                N1103701195783023                                NPRJAIFUL KHATUN                                     20250318P                   037                 AVDD      A9999     000000000000000                    10                                                                                                                                             
475183    ADB3412150728       20250318IAD01770628                                        F  CHAUDHARY                               NIRILA                                  KUMARI                                  19920229NEPAL                                   1 16-01-71-08170        524     ADKHADAKNAPA8                                                                                                             446009779805972376                                                O1103701770628019                                NPRNIRILA K CHAUDHARY                                20250318P                   037                 AVDDNGP   A9999     000000000000000                    10                                                                                                                                             
475183    ADB0844003361       20250319IAD05256639                                        F2 CHAUDHARY                               NIBHA                                   KUMARI                                  19980319NEPAL                                   1 16-01-74-02705      2 524     ADKHADAKNAPA6CHAKWA                                                                                                       446009779861851973                                                N1103705256639015                                NPRNIBHA K CHAUDHARY                                 20250319P                   037                 AVDD      A9999     000000000000000                    10                                                                                                                                             
475183    ADB9854267815       20250319IAD00131713                                        M1 CHAUDHARI                               RAJIV                                   KUMAR                                   19831107NEPAL                                   1 3416                2 524     ADKALYANPUR5                                                                                                              446009779851231217                                                N0508900131713017                                NPRRAJIV K CHAUDHARI                                 20250319P                   089                 AVDD      A9999     000000000000000                    10                                                                                                     rajivinwev@gmail.com                    
475183    ADB3971810254       20250311IAD05317128                                        F2 RAI                                     SAMJHANA                                SUNAR                                   19870826NEPAL                                   1 501032-8032         2 524     ADAISELUKHARKRURALMUNICIPALITYBIRA                                                                                        446009779825015790                                                N0601805317128016                                NPRSAMJHANA SUNAR RAI                                20250311P                   018                 AVDD      A9999     000000000000000                    10                                                                                                                                             
475183    ADB7342585407       20240830IAD05434601                                        M1 BASNET                                  KISHAN                                                                          20070108NEPAL                                   1 16-02-80-00026      1 524     ADKANCHANRUP12                                                                                                            446009779806432961                                                N1103605434601014                                NPRKISHAN BASNET                                     20240830P                   036                 AVDD      A9999     000000000000000                    10                                                                                                                                             
475183    ADB5163520939       20250311IAD01829539                                        M1 MAJHI                                   BADRI                                   KUMAR                                   19960919NEPAL                                   1 162018/555            524     ADKANCHANPUR11                                                                                                            446009779817714075                                                O1103601829539010                                NPRBADRI KUMAR MAJHI                                 20250311P                   036                 AVDD      A9999     000000000000000                    10                                                                                                                                             
475183    ADB8514562124       20250318IAD01292887                                        M1 BASNET                                  RAMESH                                  KUMAR                                   19700101NEPAL                                                           524     ADKANCHANRUP                              SAPTARI                                 SAPTARI                                 446009779842831347                                                O1103601292887017                                NPRRAMESH KUMAR BASNET                               20250318P                   036                 AVDD      A9999     000000000000000                    10                                                                                                                                             
475183    ADB7904255024       20241125IAD05280679                                        M1 KARKI                                   SANTOSH                                                                         19981212NEPAL                                   1 31-01-63/11281      1 524     ADHETAUDA18                                                                                                               446009779810158109                                                O0508305280679012                                NPRSANTOSH KARKI                                     20241125P                   083                 AVDD      A9999     000000000000000                    10                                                                                                                                             
475183    ADB0550961917       20250310IAD05573828                                        F2 MAJHI                                   NIKHITA                                                                         20050526NEPAL                                   1 3161-79-12372       2 524     ADBAKAIYA04                                                                                                               446009779825258976                                                N0508305573828012                                NPRNIKHITA MAJHI                                     20250310P                   083                 AVDD      A9999     000000000000000                    10                                                                                                                                             
475183    ADB9672371146       20250310IAD01848740                                        M1 CHALISE                                 AADITYA                                                                         20060128NEPAL                                   1 31-01-79-09535      1 524     ADHETAUDA13                                                                                                               446009779845030846                                                N0508301848740018                                NPRAADITYA CHALISE                                   20250310P                   083                 AVDD      A9999     000000000000000                    10                                                                                                                                             
475183    ADB8923346948       20250310IAD05573506                                        M1 MAJHI                                   NIKHIL                                                                          20030824NEPAL                                   1 31-01-74-12378      1 524     ADBAKAIYA4                                                                                                                446009779756330340                                                N0508305573506015                                NPRNIKHIL MAJHI                                      20250310P                   083                 AVDD      A9999     000000000000000                    10                                                                                                                                             
475183    ADB2802428094       20250310IAD05561838                                        F2 SHRESTHA                                BINA                                                                            20000712NEPAL                                   1 31-01-75-01051      1 524     ADHETAUDA17                                                                                                               446009779865502393                                                N0508305561838012                                NPRBINA SHRESTHA                                     20250310P                   083                 AVDD      A9999     000000000000000                    10                                                                                                                                             
475183    ADB9456591546       20250310IAD05124448                                        M1 SHRESTHA                                NAIN                                    BAHADUR                                 20160802NEPAL                                   1 3903/4399           1 524     ADHETAUDA18                                                                                                               446009779845588435                                                O0508305124448019                                NPRNAIN B SHRESTHA                                   20250310P                   083                 AVDD      A9999     000000000000000                    10                                                                                                                                             
475183    ADB0883027788       20250311IAD05575234                                        M1 KANDEL                                  HARISHCHANDRA                                                                   19630827NEPAL                                   1 3604                2 524     ADHETADUA2                                                                                                                446009779855067530                                                N0508305575234012                                NPRHARISHCHANDRA KANDEL                              20250311P                   083                 AVDD      A9999     000000000000000                    10                                                                                                                                             
475183    ADB3451186487       20250316IAD01637710                                        M1 DHAKAL                                  SUNITA                                                                          19700101NEPAL                                                           524     ADHETAUDA                                 HETAUDA                                 HETAUDA                                 446009779811997274                                                O0508301637710015                                NPRSUNITA  DHAKAL                                    20250316P                   083                 AVDD      A9999     000000000000000                    10                                                                                                                                             
475183    ADB1024081353       20250316IAD03056310                                        F2 DONG                                    ANITA                                   MAYA                                    20031130NEPAL                                   1 31018004595         1 524     ADBAKAIYARURALMUNICIPALITY                                                                                                446009779766352666                                                N0508303056310019                                NPRANITA MAYA DONG                                   20250316P                   083                 AVDD      A9999     000000000000000                    10                                                                                                                                             
475183    ADB8800437098       20250316IAD05563639                                        F2 BHATTARAI                               PRANETA                                                                         20000225NEPAL                                   1 31017505535         1 524     ADHETAUDA5                                                                                                                446009779845867312                                                N0508305563639017                                NPRPRANETA BHATTARAI                                 20250316P                   083                 AVDD      A9999     000000000000000                    10                                                                                                                                             
475183    ADB1869376554       20250316IAD05351869                                        F2 SYANGBO                                 SHANTI                                  MAYA                                    20001228NEPAL                                   1 31017507030         2 524     ADMANAHARI2                                                                                                               446009779814281213                                                N0508305351869012                                NPRSHANTI MAYA SYANGBO                               20250316P                   083                 AVDD      A9999     000000000000000                    10                                                                                                                                             
475183    ADB5164796966       20250316IAD05575958                                        F2 MAGAR                                   SMRITI                                  RANA                                    20050526NEPAL                                   1 31017806412         1 524     ADMANAHARI05                                                                                                              446009779824254811                                                N0508305575958010                                NPRSMRITI RANA MAGAR                                 20250316P                   083                 AVDD      A9999     000000000000000                    10                                                                                                                                             
475183    ADB6437493631       20250317IAD01694712                                        M1 SAHAKARI                                KAMAL                                   RAJ                                     20040310NEPAL                                   1 61-01-77-00263        524     ADBANGANGA2                                                                                                               446009779865603099                                                O0415601694712011                                NPRKAMAL RAJ SAHAKARI                                20250317P                   156                 AVDD      A9999     000000000000000                    10                                                                                                                                             
475183    ADB0780379208       20250317IAD01560022                                        M1 BANJARA                                 MADHUSUDAN                                                                      19930109NEPAL                                   1 1009/71763            524     ADAAMBHANJANG05GADI                                                                                                       446009779845801811       9845801811                               O0508301560022013                                NPRMADHUSUDAN BANJARA                                20250317P                   083                 AVDD      A9999     000000000000000                    10                                                                                                                                             
475183    ADB6132530194       20250317IAD05306586                                        F2 KHADKA                                  NABINA                                                                          20021204NEPAL                                   1 53027600531         1 524     ADPOKARA04                                                                                                                446009779806289541                                                N0508305306586018                                NPRNABINA KHADKA                                     20250317P                   083                 AVDD      A9999     000000000000000                    10                                                                                                                                             
475183    ADB2558894979       20250318IAD05578717                                        F2 BHOLAN                                  SUSMITA                                                                         19970223NEPAL                                   4 31017207294         2 524     ADHETAUDA5                                                                                                                446009779767925055                                                N0508305578717014                                NPRSUSMITA BHOLAN                                    20250318P                   083                 AVDD      A9999     000000000000000                    10                                                                                                                                             
475183    ADB7854249289       20250319IAD01753703                                        M1 RAY                                     MANOJ                                   KUMAR                                   19910805NEPAL                                   1 18-10-39/49           524     ADLOHARPATTI03                                                                                                            446009779812110874                                                O1006201753703016                                NPRMANOJ KUMAR RAY                                   20250319P                   062                 AVDD      A9999     000000000000000                    10                                                                                                                                             
475183    ADB6708796908       20250319IAD01081642                                        F2 DAHAL                                   RADHIKA                                                                         19760614NEPAL                                   1 12/699              2 524     ADAAMBHANJYANG07                                                                                                          446009779865102551                                                N0508301081642023                                NPRRADHIKA DAHAL                                     20250319P                   083                 AVDD      A9999     000000000000000                    10                                                                                                                                             
475183    ADB5639387791       20250319IAD05578906                                        M1 GHALAN                                  DIPESH                                                                          20040603NEPAL                                   1 31-01-79-07139      1 524     ADBAGMATI04                                                                                                               446009779762576106                                                N0508305578906011                                NPRDIPESH GHALAN                                     20250319P                   083                 AVDD      A9999     000000000000000                    10                                                                                                                                             
475183    ADB0897367652       20250319IAD05579291                                        F2 CHAULAGAIN                              BIGYATA                                 CHHETRI                                 20010709NEPAL                                   1 31-01-76-02121      1 524     ADHETAUDA7                                                                                                                446009779863267469                                                N0508305579291010                                NPRBIGYATA C CHAULAGAIN                              20250319P                   083                 AVDD      A9999     000000000000000                    10                                                                                                                                             
475183    ADB6343383003       20250320IAD05578383                                        M1 THAKURI                                 SANTOSH                                                                         19900826NEPAL                                   1 31101466806         2 524     ADMAKAWANPURGADHI4                                                                                                        446009779741683960                                                N0508305578383019                                NPRSANTOSH THAKURI                                   20250320P                   083                 AVDD      A9999     000000000000000                    10                                                                                                                                             
